{
  "_format": "hh-sol-artifact-1",
  "contractName": "VotingFactory",
  "sourceName": "contracts/VotingFactory.sol",
  "abi": [
    {
      "inputs": [],
      "stateMutability": "nonpayable",
      "type": "constructor"
    },
    {
      "anonymous": false,
      "inputs": [
        {
          "indexed": true,
          "internalType": "address",
          "name": "_from",
          "type": "address"
        },
        {
          "indexed": true,
          "internalType": "address",
          "name": "_contract",
          "type": "address"
        }
      ],
      "name": "NewInstance",
      "type": "event"
    },
    {
      "inputs": [],
      "name": "b_A6Q",
      "outputs": [],
      "stateMutability": "nonpayable",
      "type": "function"
    }
  ],
  "bytecode": "0x60a060405234801561001057600080fd5b5060405161001d9061004b565b604051809103906000f080158015610039573d6000803e3d6000fd5b506001600160a01b0316608052610058565b611d418061024083390190565b6080516101ce6100726000396000604101526101ce6000f3fe608060405234801561001057600080fd5b506004361061002b5760003560e01c8063f22d605e14610030575b600080fd5b61003861003a565b005b60006100657f00000000000000000000000000000000000000000000000000000000000000006100fa565b60405163189acdbd60e31b81523360048201529091506001600160a01b0382169063c4d66de890602401600060405180830381600087803b1580156100a957600080fd5b505af11580156100bd573d6000803e3d6000fd5b50506040516001600160a01b03841692503391507fdeebba25327991df4af0788fd4c27a53895cea8db060fcf13171fd8d2ee8b75e90600090a350565b6000763d602d80600a3d3981f3363d3d373d3d3d363d730000008260601b60e81c176000526e5af43d82803e903d91602b57fd5bf38260781b17602052603760096000f090506001600160a01b0381166101935760405162461bcd60e51b8152602060048201526016602482015275115490cc4c4d8dce8818dc99585d194819985a5b195960521b604482015260640160405180910390fd5b91905056fea264697066735822122036951e2ea765f297b8202fd657efbb418b04a008b89855d7a1cd7c2cd67b5c6f64736f6c63430008110033608060405234801561001057600080fd5b50611d21806100206000396000f3fe608060405234801561001057600080fd5b506004361061012c5760003560e01c80638cddccba116100ad578063c4d66de811610071578063c4d66de814610243578063d75bb9e514610256578063e09b8c7914610277578063ee74c6781461027f578063f2fde38b1461028757600080fd5b80638cddccba146101f05780638da5cb5b146101f85780638de5b121146102135780638e7ea5b214610228578063b6a5d7de1461023057600080fd5b80635c975abb116100f45780635c975abb1461019757806367469356146101ad5780636a15b154146101c2578063715018a6146101d5578063837b2a38146101dd57600080fd5b80630121b93f14610131578063140cf04c1461014657806319f41a40146101595780632f95355b1461017c5780635bbe6d6a1461018f575b600080fd5b61014461013f3660046116d5565b61029a565b005b6101446101543660046116ee565b610420565b609e546101669060ff1681565b604051610173919061174f565b60405180910390f35b61014461018a366004611763565b6104cc565b610144610664565b60655460ff166040519015158152602001610173565b6101b56106b2565b604051610173919061181b565b6101446101d0366004611891565b6107b5565b610144610858565b6101446101eb366004611763565b61086c565b610144610940565b6033546040516001600160a01b039091168152602001610173565b61021b6109b1565b60405161017391906118f4565b61021b610a3f565b61014461023e366004611907565b610b4c565b610144610251366004611907565b610c89565b610269610264366004611907565b610d9d565b604051908152602001610173565b610144610e68565b610144610ed1565b610144610295366004611907565b610f3a565b336000908152609a602052604090205460ff166102eb5760405162461bcd60e51b81526004016102e2906020808252600490820152633078303160e01b604082015260600190565b60405180910390fd5b6102f3610fb3565b6002609e5460ff16600381111561030c5761030c611717565b146103425760405162461bcd60e51b81526004016102e2906020808252600490820152633078313160e01b604082015260600190565b336000908152609a6020526040902054610100900460ff16156103905760405162461bcd60e51b81526004016102e290602080825260049082015263183c189960e11b604082015260600190565b336000908152609a60205260409020805461ff001916610100178155600101819055609c8054829081106103c6576103c6611930565b9060005260206000209060020201600101600081546103e49061195c565b9091555060405181815233907f4d99b957a2bc29a30ebd96a7be8e68fe50a3c701db28a91436490b7d53870ca49060200160405180910390a250565b610428610ff9565b610430610fb3565b6000609e5460ff16600381111561044957610449611717565b1461047f5760405162461bcd60e51b81526004016102e2906020808252600490820152633078303560e01b604082015260600190565b6099805460ff191682151590811790915560405160ff909116151581527ff62c037a5c83e88c43ceac786e19d059d653c8346eee23a05752e7202a4f403e9060200160405180910390a150565b6104d4610fb3565b6001609e5460ff1660038111156104ed576104ed611717565b146105235760405162461bcd60e51b81526004016102e2906020808252600490820152633078303760e01b604082015260600190565b6033546001600160a01b031633146105755760995460ff1615156001146105755760405162461bcd60e51b81526004016102e290602080825260049082015263060f060760e31b604082015260600190565b60408051808201909152606081526000602082015282828080601f0160208091040260200160405190810160405280939291908181526020018383808284376000920191909152505050818352506105cc90611053565b609c8054600181018255600091909152815182916002027faf85b9071dfafeac1409d3f1d19bafc9bc7c37974cde8df0ee6168f0086e539c019081906106129082611a13565b5060209190910151600191820155609c547f92e393e9b54e2f801d3ea4beb0c5e71a21cc34a5d34b77d0fb8a3aa1650dc18f9161064e91611ad3565b60405190815260200160405180910390a1505050565b61066c610ff9565b610674610fb3565b61067c611115565b6040513081527f5e8652b9d1a24d82bfe7a9bfae71e26899d688827382d41f69b1c79342c586aa906020015b60405180910390a1565b60606106bc610fb3565b609c805480602002602001604051908101604052809291908181526020016000905b828210156107ac57838290600052602060002090600202016040518060400160405290816000820180546107119061198b565b80601f016020809104026020016040519081016040528092919081815260200182805461073d9061198b565b801561078a5780601f1061075f5761010080835404028352916020019161078a565b820191906000526020600020905b81548152906001019060200180831161076d57829003601f168201915b50505050508152602001600182015481525050815260200190600101906106de565b50505050905090565b6107bd610ff9565b6107c5610fb3565b6000609e5460ff1660038111156107de576107de611717565b146108145760405162461bcd60e51b81526004016102e2906020808252600490820152633078303360e01b604082015260600190565b8060005b818110156108525761084a84848381811061083557610835611930565b905060200201602081019061023e9190611907565b600101610818565b50505050565b610860610ff9565b61086a600061116a565b565b610874610ff9565b61087c610fb3565b609860405160200161088e9190611b63565b6040516020818303038152906040528051906020012082826040516020016108b7929190611b76565b60405160208183030381529060405280519060200120036109035760405162461bcd60e51b81526004016102e290602080825260049082015263183c181960e11b604082015260600190565b6098610910828483611ba5565b5060405130907f2c1ee3d7ad30f784f159cce0593bd788ab29707c43342032eaca5529cae3838190600090a25050565b610948610ff9565b610950610fb3565b6002609e5460ff16600381111561096957610969611717565b1461099f5760405162461bcd60e51b81526004016102e2906020808252600490820152630c1e0c4d60e21b604082015260600190565b6109a960036111bc565b61086a61121b565b609880546109be9061198b565b80601f01602080910402602001604051908101604052809291908181526020018280546109ea9061198b565b8015610a375780601f10610a0c57610100808354040283529160200191610a37565b820191906000526020600020905b815481529060010190602001808311610a1a57829003601f168201915b505050505081565b6060610a49610fb3565b6003609e5460ff166003811115610a6257610a62611717565b14610a985760405162461bcd60e51b81526004016102e2906020808252600490820152633078313760e01b604082015260600190565b609c60975481548110610aad57610aad611930565b90600052602060002090600202016000018054610ac99061198b565b80601f0160208091040260200160405190810160405280929190818152602001828054610af59061198b565b8015610b425780601f10610b1757610100808354040283529160200191610b42565b820191906000526020600020905b815481529060010190602001808311610b2557829003601f168201915b5050505050905090565b610b54610ff9565b610b5c610fb3565b6000609e5460ff166003811115610b7557610b75611717565b14610bab5760405162461bcd60e51b81526004016102e2906020808252600490820152633078303360e01b604082015260600190565b6001600160a01b0381166000908152609a602052604090205460ff1615610bfd5760405162461bcd60e51b81526004016102e2906020808252600490820152630c1e0c0d60e21b604082015260600190565b6001600160a01b0381166000818152609a6020526040808220805460ff19166001908117909155609b8054918201815583527fbba9db4cdbea0a37c207bbb83e20f828cd4441c49891101dc94fd20dc8efc3490180546001600160a01b03191684179055517fb6be2187d059cc2a55fe29e0e503b566e1e0f8c8780096e185429350acffd3dd9190a250565b600054610100900460ff1615808015610ca95750600054600160ff909116105b80610cc35750303b158015610cc3575060005460ff166001145b610d265760405162461bcd60e51b815260206004820152602e60248201527f496e697469616c697a61626c653a20636f6e747261637420697320616c72656160448201526d191e481a5b9a5d1a585b1a5e995960921b60648201526084016102e2565b6000805460ff191660011790558015610d49576000805461ff0019166101001790555b610d528261116a565b8015610d99576000805461ff0019169055604051600181527f7f26b83ff96e1f2b6a682f133852f6798a09c465da95921460cefb3847402498906020015b60405180910390a15b5050565b336000908152609a602052604081205460ff16610de55760405162461bcd60e51b81526004016102e2906020808252600490820152633078303160e01b604082015260600190565b610ded610fb3565b6001600160a01b0382166000908152609a602052604090205460ff610100909104161515600114610e495760405162461bcd60e51b81526004016102e290602080825260049082015263183c189b60e11b604082015260600190565b506001600160a01b03166000908152609a602052604090206001015490565b610e70610ff9565b610e78610fb3565b6000609e5460ff166003811115610e9157610e91611717565b14610ec75760405162461bcd60e51b81526004016102e290602080825260049082015263183c181b60e11b604082015260600190565b61086a60016111bc565b610ed9610ff9565b610ee1610fb3565b6001609e5460ff166003811115610efa57610efa611717565b14610f305760405162461bcd60e51b81526004016102e2906020808252600490820152630307831360e41b604082015260600190565b61086a60026111bc565b610f42610ff9565b6001600160a01b038116610fa75760405162461bcd60e51b815260206004820152602660248201527f4f776e61626c653a206e6577206f776e657220697320746865207a65726f206160448201526564647265737360d01b60648201526084016102e2565b610fb08161116a565b50565b60655460ff161561086a5760405162461bcd60e51b815260206004820152601060248201526f14185d5cd8589b194e881c185d5cd95960821b60448201526064016102e2565b6033546001600160a01b0316331461086a5760405162461bcd60e51b815260206004820181905260248201527f4f776e61626c653a2063616c6c6572206973206e6f7420746865206f776e657260448201526064016102e2565b609c5460005b8181101561111057609c818154811061107457611074611930565b90600052602060002090600202016000016040516020016110959190611b63565b60405160208183030381529060405280519060200120836040516020016110bc91906118f4565b60405160208183030381529060405280519060200120036111085760405162461bcd60e51b81526004016102e290602080825260049082015263060f062760e31b604082015260600190565b600101611059565b505050565b61111d610fb3565b6065805460ff191660011790557f62e78cea01bee320cd4e420270b5ea74000d11b0c9f74754ebdbfc544b05a2586111523390565b6040516001600160a01b0390911681526020016106a8565b603380546001600160a01b038381166001600160a01b0319831681179093556040519116919082907f8be0079c531659141344cd1fd0a4f28419497f9722a3daafe3b4186f6b6457e090600090a35050565b609e805460ff811691839160ff191660018360038111156111df576111df611717565b0217905550609e546040517f0a97a4ee45751e2abf3e4fc8946939630b11b371ea8ae39ccdc3056e98f5cc3f91610d9091849160ff1690611c66565b6003609e5460ff16600381111561123457611234611717565b1461126a5760405162461bcd60e51b81526004016102e2906020808252600490820152633078313560e01b604082015260600190565b60006112746115d5565b609c5490915060005b818110156113b55782609c828154811061129957611299611930565b906000526020600020906002020160010154036113ad5780609781905550609d6040518060400160405280609c84815481106112d7576112d7611930565b906000526020600020906002020160000180546112f39061198b565b80601f016020809104026020016040519081016040528092919081815260200182805461131f9061198b565b801561136c5780601f106113415761010080835404028352916020019161136c565b820191906000526020600020905b81548152906001019060200180831161134f57829003601f168201915b505050918352505060006020918201819052835460018101855593815220815191926002020190819061139f9082611a13565b506020820151816001015550505b60010161127d565b50609d5460011015610d99577fc82f34ef638fb910fce17dc38c3c042e22b138d5a6ee727b081721ff6aa0fc69609d6040516113f19190611c81565b60405180910390a1611405609c6000611646565b609d5460005b8181101561150f57609c6040518060400160405280609d848154811061143357611433611930565b9060005260206000209060020201600001805461144f9061198b565b80601f016020809104026020016040519081016040528092919081815260200182805461147b9061198b565b80156114c85780601f1061149d576101008083540402835291602001916114c8565b820191906000526020600020905b8154815290600101906020018083116114ab57829003601f168201915b50505091835250506000602091820181905283546001810185559381522081519192600202019081906114fb9082611a13565b50602091909101516001918201550161140b565b5061151c609d6000611646565b609b5460005b818110156115ca576000609a6000609b848154811061154357611543611930565b60009182526020808320909101546001600160a01b03168352820192909252604001812080549215156101000261ff001990931692909217909155609b8054609a9183918590811061159757611597611930565b60009182526020808320909101546001600160a01b03168352820192909252604001902060019081019190915501611522565b5061085260026111bc565b609c54600090815b818110156116415782609c82815481106115f9576115f9611930565b906000526020600020906002020160010154111561163957609c818154811061162457611624611930565b90600052602060002090600202016001015492505b6001016115dd565b505090565b5080546000825560020290600052602060002090810190610fb091905b80821115611687576000611677828261168b565b5060006001820155600201611663565b5090565b5080546116979061198b565b6000825580601f106116a7575050565b601f016020900490600052602060002090810190610fb091905b8082111561168757600081556001016116c1565b6000602082840312156116e757600080fd5b5035919050565b60006020828403121561170057600080fd5b8135801515811461171057600080fd5b9392505050565b634e487b7160e01b600052602160045260246000fd5b6004811061174b57634e487b7160e01b600052602160045260246000fd5b9052565b6020810161175d828461172d565b92915050565b6000806020838503121561177657600080fd5b823567ffffffffffffffff8082111561178e57600080fd5b818501915085601f8301126117a257600080fd5b8135818111156117b157600080fd5b8660208285010111156117c357600080fd5b60209290920196919550909350505050565b6000815180845260005b818110156117fb576020818501810151868301820152016117df565b506000602082860101526020601f19601f83011685010191505092915050565b60006020808301818452808551808352604092508286019150828160051b87010184880160005b8381101561188357888303603f1901855281518051878552611866888601826117d5565b918901519489019490945294870194925090860190600101611842565b509098975050505050505050565b600080602083850312156118a457600080fd5b823567ffffffffffffffff808211156118bc57600080fd5b818501915085601f8301126118d057600080fd5b8135818111156118df57600080fd5b8660208260051b85010111156117c357600080fd5b60208152600061171060208301846117d5565b60006020828403121561191957600080fd5b81356001600160a01b038116811461171057600080fd5b634e487b7160e01b600052603260045260246000fd5b634e487b7160e01b600052601160045260246000fd5b60006001820161196e5761196e611946565b5060010190565b634e487b7160e01b600052604160045260246000fd5b600181811c9082168061199f57607f821691505b6020821081036119bf57634e487b7160e01b600052602260045260246000fd5b50919050565b601f82111561111057600081815260208120601f850160051c810160208610156119ec5750805b601f850160051c820191505b81811015611a0b578281556001016119f8565b505050505050565b815167ffffffffffffffff811115611a2d57611a2d611975565b611a4181611a3b845461198b565b846119c5565b602080601f831160018114611a765760008415611a5e5750858301515b600019600386901b1c1916600185901b178555611a0b565b600085815260208120601f198616915b82811015611aa557888601518255948401946001909101908401611a86565b5085821015611ac35787850151600019600388901b60f8161c191681555b5050505050600190811b01905550565b8181038181111561175d5761175d611946565b60008154611af38161198b565b808552602060018381168015611b105760018114611b2a57611b58565b60ff1985168884015283151560051b880183019550611b58565b866000528260002060005b85811015611b505781548a8201860152908301908401611b35565b890184019650505b505050505092915050565b6020815260006117106020830184611ae6565b60208152816020820152818360408301376000818301604090810191909152601f909201601f19160101919050565b67ffffffffffffffff831115611bbd57611bbd611975565b611bd183611bcb835461198b565b836119c5565b6000601f841160018114611c055760008515611bed5750838201355b600019600387901b1c1916600186901b178355611c5f565b600083815260209020601f19861690835b82811015611c365786850135825560209485019460019092019101611c16565b5086821015611c535760001960f88860031b161c19848701351681555b505060018560011b0183555b5050505050565b60408101611c74828561172d565b611710602083018461172d565b60006020808301818452808554808352604092508286019150828160051b870101876000528460002060005b8381101561188357888303603f19018552858352611ccd86840183611ae6565b60018381015494890194909452948701949260029092019101611cad56fea26469706673582212208aff4744ee2c02bc216023b61f0e4f4baad5367682ad74c6bcc56d24f06361ff64736f6c63430008110033",
  "linkReferences": {},
  "deployedLinkReferences": {}
}