{
  "_format": "hh-sol-artifact-1",
  "contractName": "InstancesList",
  "sourceName": "contracts/InstancesList.sol",
  "abi": [
    {
      "inputs": [
        {
          "internalType": "address",
          "name": "_contractAddress",
          "type": "address"
        }
      ],
      "name": "b_A6Q",
      "outputs": [],
      "stateMutability": "nonpayable",
      "type": "function"
    },
    {
      "inputs": [],
      "name": "getInstancesList",
      "outputs": [
        {
          "internalType": "address[]",
          "name": "",
          "type": "address[]"
        }
      ],
      "stateMutability": "view",
      "type": "function"
    },
    {
      "inputs": [
        {
          "internalType": "address",
          "name": "_contractAddress",
          "type": "address"
        }
      ],
      "name": "removeInstance",
      "outputs": [],
      "stateMutability": "nonpayable",
      "type": "function"
    }
  ],
  "bytecode": "0x608060405234801561001057600080fd5b506104e4806100206000396000f3fe608060405234801561001057600080fd5b50600436106100415760003560e01c80632dafa99f14610046578063830a322a14610064578063ceebcc8a14610079575b600080fd5b61004e61008c565b60405161005b919061041b565b60405180910390f35b610077610072366004610468565b6100f5565b005b610077610087366004610468565b6101e2565b33600090815260208181526040918290208054835181840281018401909452808452606093928301828280156100eb57602002820191906000526020600020905b81546001600160a01b031681526001909101906020018083116100cd575b5050505050905090565b33600090815260208190526040902054806101445760405162461bcd60e51b815260040161013b906020808252600490820152630307832360e41b604082015260600190565b60405180910390fd5b60005b818110156101dd5733600090815260208190526040902080546001600160a01b03851691908390811061017c5761017c610498565b6000918252602090912001546001600160a01b0316036101d5573360009081526020819052604090208054829081106101b7576101b7610498565b600091825260209091200180546001600160a01b0319169055505050565b600101610147565b505050565b3360009081526020819052604081205482915b8181101561027d5733600090815260208190526040902080546001600160a01b03851691908390811061022a5761022a610498565b6000918252602090912001546001600160a01b0316036102755760405162461bcd60e51b815260040161013b906020808252600490820152633078313960e01b604082015260600190565b6001016101f5565b503360009081526020819052604081208054909181156103645760005b828110156103285760006001600160a01b03168482815481106102bf576102bf610498565b6000918252602090912001546001600160a01b03160361031c57868482815481106102ec576102ec610498565b6000918252602082200180546001600160a01b0319166001600160a01b0393909316929092179091559150610328565b6001915060010161029a565b5080151560010361035f5782546001810184556000848152602090200180546001600160a01b0319166001600160a01b0388161790555b610390565b82546001810184556000848152602090200180546001600160a01b0319166001600160a01b0388161790555b33600090815260208190526040902083546103ad919085906103b6565b50505050505050565b8280548282559060005260206000209081019282156103f65760005260206000209182015b828111156103f65782548255916001019190600101906103db565b50610402929150610406565b5090565b5b808211156104025760008155600101610407565b6020808252825182820181905260009190848201906040850190845b8181101561045c5783516001600160a01b031683529284019291840191600101610437565b50909695505050505050565b60006020828403121561047a57600080fd5b81356001600160a01b038116811461049157600080fd5b9392505050565b634e487b7160e01b600052603260045260246000fdfea2646970667358221220570e06710ba92d21478a426a45807db0837f1324c2b1f2132a7d3d32123f9f1a64736f6c63430008110033",
  "linkReferences": {},
  "deployedLinkReferences": {}
}