{"contracts/VotingFactory.sol":{"VotingFactory":{"abi":[{"inputs":[],"stateMutability":"nonpayable","type":"constructor"},{"anonymous":false,"inputs":[{"indexed":true,"internalType":"address","name":"_from","type":"address"},{"indexed":true,"internalType":"address","name":"_contract","type":"address"}],"name":"NewInstance","type":"event"},{"inputs":[],"name":"b_A6Q","outputs":[],"stateMutability":"nonpayable","type":"function"}],"evm":{"bytecode":{"linkReferences":{},"object":"60a060405234801561001057600080fd5b5060405161001d9061004b565b604051809103906000f080158015610039573d6000803e3d6000fd5b506001600160a01b0316608052610058565b611db68061024083390190565b6080516101ce6100726000396000604101526101ce6000f3fe608060405234801561001057600080fd5b506004361061002b5760003560e01c8063f22d605e14610030575b600080fd5b61003861003a565b005b60006100657f00000000000000000000000000000000000000000000000000000000000000006100fa565b60405163189acdbd60e31b81523360048201529091506001600160a01b0382169063c4d66de890602401600060405180830381600087803b1580156100a957600080fd5b505af11580156100bd573d6000803e3d6000fd5b50506040516001600160a01b03841692503391507fdeebba25327991df4af0788fd4c27a53895cea8db060fcf13171fd8d2ee8b75e90600090a350565b6000763d602d80600a3d3981f3363d3d373d3d3d363d730000008260601b60e81c176000526e5af43d82803e903d91602b57fd5bf38260781b17602052603760096000f090506001600160a01b0381166101935760405162461bcd60e51b8152602060048201526016602482015275115490cc4c4d8dce8818dc99585d194819985a5b195960521b604482015260640160405180910390fd5b91905056fea264697066735822122098ce30961f6557190bdb3ecc668ece91097ddf43fe24fcb8adc091f7db19be3164736f6c63430008110033608060405234801561001057600080fd5b50611d96806100206000396000f3fe608060405234801561001057600080fd5b50600436106101375760003560e01c8063837b2a38116100b8578063b6a5d7de1161007c578063b6a5d7de14610243578063c4d66de814610256578063d75bb9e514610269578063e09b8c791461028a578063ee74c67814610292578063f2fde38b1461029a57600080fd5b8063837b2a38146101f05780638cddccba146102035780638da5cb5b1461020b5780638de5b121146102265780638e7ea5b21461023b57600080fd5b80635bbe6d6a116100ff5780635bbe6d6a146101a25780635c975abb146101aa57806367469356146101c05780636a15b154146101d5578063715018a6146101e857600080fd5b80630121b93f1461013c578063140cf04c1461015157806319f41a40146101645780632f95355b14610187578063378a21781461019a575b600080fd5b61014f61014a36600461172c565b6102ad565b005b61014f61015f366004611745565b61041f565b609e546101719060ff1681565b60405161017e91906117a6565b60405180910390f35b61014f6101953660046117ba565b6104c5565b61014f61068c565b61014f610a5d565b60655460ff16604051901515815260200161017e565b6101c8610aab565b60405161017e9190611872565b61014f6101e33660046118e8565b610bde565b61014f610c7b565b61014f6101fe3660046117ba565b610c8f565b61014f610d63565b6033546040516001600160a01b03909116815260200161017e565b61022e610dcc565b60405161017e919061194b565b61022e610e5a565b61014f61025136600461195e565b610f67565b61014f61026436600461195e565b6110a4565b61027c61027736600461195e565b6111b7565b60405190815260200161017e565b61014f611269565b61014f6112d2565b61014f6102a836600461195e565b61133b565b336000908152609a602052604090205460ff166102e55760405162461bcd60e51b81526004016102dc90611987565b60405180910390fd5b6102ed6113b4565b6002609e5460ff1660038111156103065761030661176e565b1461033c5760405162461bcd60e51b81526004016102dc906020808252600490820152633078313160e01b604082015260600190565b336000908152609a6020526040902054610100900460ff161561038a5760405162461bcd60e51b81526004016102dc90602080825260049082015263183c189960e11b604082015260600190565b336000908152609a60205260409020805461ff001916610100178155600101819055609c8054829081106103c0576103c06119a5565b9060005260206000209060020201600101600081546103de906119d1565b9091555060408051338152602081018390527f4d99b957a2bc29a30ebd96a7be8e68fe50a3c701db28a91436490b7d53870ca491015b60405180910390a150565b6104276113fa565b61042f6113b4565b6000609e5460ff1660038111156104485761044861176e565b1461047e5760405162461bcd60e51b81526004016102dc906020808252600490820152633078303560e01b604082015260600190565b6099805460ff191682151590811790915560405160ff909116151581527ff62c037a5c83e88c43ceac786e19d059d653c8346eee23a05752e7202a4f403e90602001610414565b336000908152609a602052604090205460ff166104f45760405162461bcd60e51b81526004016102dc90611987565b6104fc6113b4565b6001609e5460ff1660038111156105155761051561176e565b1461054b5760405162461bcd60e51b81526004016102dc906020808252600490820152633078303760e01b604082015260600190565b6033546001600160a01b0316331461059d5760995460ff16151560011461059d5760405162461bcd60e51b81526004016102dc90602080825260049082015263060f060760e31b604082015260600190565b60408051808201909152606081526000602082015282828080601f0160208091040260200160405190810160405280939291908181526020018383808284376000920191909152505050818352506105f490611454565b609c8054600181018255600091909152815182916002027faf85b9071dfafeac1409d3f1d19bafc9bc7c37974cde8df0ee6168f0086e539c0190819061063a9082611a88565b5060209190910151600191820155609c547f92e393e9b54e2f801d3ea4beb0c5e71a21cc34a5d34b77d0fb8a3aa1650dc18f9161067691611b48565b60405190815260200160405180910390a1505050565b6106946113fa565b61069c6113b4565b6003609e5460ff1660038111156106b5576106b561176e565b146106eb5760405162461bcd60e51b81526004016102dc906020808252600490820152633078313560e01b604082015260600190565b60006106f561151e565b609c5490915060005b818110156108365782609c828154811061071a5761071a6119a5565b9060005260206000209060020201600101540361082e5780609781905550609d6040518060400160405280609c8481548110610758576107586119a5565b9060005260206000209060020201600001805461077490611a00565b80601f01602080910402602001604051908101604052809291908181526020018280546107a090611a00565b80156107ed5780601f106107c2576101008083540402835291602001916107ed565b820191906000526020600020905b8154815290600101906020018083116107d057829003601f168201915b50505091835250506000602091820181905283546001810185559381522081519192600202019081906108209082611a88565b506020820151816001015550505b6001016106fe565b50609d5460011015610a59577fc82f34ef638fb910fce17dc38c3c042e22b138d5a6ee727b081721ff6aa0fc69609d6040516108729190611bd8565b60405180910390a1610886609c600061169d565b609d5460005b8181101561099057609c6040518060400160405280609d84815481106108b4576108b46119a5565b906000526020600020906002020160000180546108d090611a00565b80601f01602080910402602001604051908101604052809291908181526020018280546108fc90611a00565b80156109495780601f1061091e57610100808354040283529160200191610949565b820191906000526020600020905b81548152906001019060200180831161092c57829003601f168201915b505050918352505060006020918201819052835460018101855593815220815191926002020190819061097c9082611a88565b50602091909101516001918201550161088c565b5061099d609d600061169d565b609b5460005b81811015610a4b576000609a6000609b84815481106109c4576109c46119a5565b60009182526020808320909101546001600160a01b03168352820192909252604001812080549215156101000261ff001990931692909217909155609b8054609a91839185908110610a1857610a186119a5565b60009182526020808320909101546001600160a01b031683528201929092526040019020600190810191909155016109a3565b50610a566002611597565b50505b5050565b610a656113fa565b610a6d6113b4565b610a756115f6565b6040513081527f5e8652b9d1a24d82bfe7a9bfae71e26899d688827382d41f69b1c79342c586aa906020015b60405180910390a1565b336000908152609a602052604090205460609060ff16610add5760405162461bcd60e51b81526004016102dc90611987565b610ae56113b4565b609c805480602002602001604051908101604052809291908181526020016000905b82821015610bd55783829060005260206000209060020201604051806040016040529081600082018054610b3a90611a00565b80601f0160208091040260200160405190810160405280929190818152602001828054610b6690611a00565b8015610bb35780601f10610b8857610100808354040283529160200191610bb3565b820191906000526020600020905b815481529060010190602001808311610b9657829003601f168201915b5050505050815260200160018201548152505081526020019060010190610b07565b50505050905090565b610be66113fa565b610bee6113b4565b6000609e5460ff166003811115610c0757610c0761176e565b14610c3d5760405162461bcd60e51b81526004016102dc906020808252600490820152633078303360e01b604082015260600190565b8060005b81811015610a5657610c73848483818110610c5e57610c5e6119a5565b9050602002016020810190610251919061195e565b600101610c41565b610c836113fa565b610c8d600061164b565b565b610c976113fa565b610c9f6113b4565b6098604051602001610cb19190611c42565b604051602081830303815290604052805190602001208282604051602001610cda929190611c55565b6040516020818303038152906040528051906020012003610d265760405162461bcd60e51b81526004016102dc90602080825260049082015263183c181960e11b604082015260600190565b6098610d33828483611c84565b5060405130907f2c1ee3d7ad30f784f159cce0593bd788ab29707c43342032eaca5529cae3838190600090a25050565b610d6b6113fa565b610d736113b4565b6002609e5460ff166003811115610d8c57610d8c61176e565b14610dc25760405162461bcd60e51b81526004016102dc906020808252600490820152630c1e0c4d60e21b604082015260600190565b610c8d6003611597565b60988054610dd990611a00565b80601f0160208091040260200160405190810160405280929190818152602001828054610e0590611a00565b8015610e525780601f10610e2757610100808354040283529160200191610e52565b820191906000526020600020905b815481529060010190602001808311610e3557829003601f168201915b505050505081565b6060610e646113b4565b6003609e5460ff166003811115610e7d57610e7d61176e565b14610eb35760405162461bcd60e51b81526004016102dc906020808252600490820152633078313760e01b604082015260600190565b609c60975481548110610ec857610ec86119a5565b90600052602060002090600202016000018054610ee490611a00565b80601f0160208091040260200160405190810160405280929190818152602001828054610f1090611a00565b8015610f5d5780601f10610f3257610100808354040283529160200191610f5d565b820191906000526020600020905b815481529060010190602001808311610f4057829003601f168201915b5050505050905090565b610f6f6113fa565b610f776113b4565b6000609e5460ff166003811115610f9057610f9061176e565b14610fc65760405162461bcd60e51b81526004016102dc906020808252600490820152633078303360e01b604082015260600190565b6001600160a01b0381166000908152609a602052604090205460ff16156110185760405162461bcd60e51b81526004016102dc906020808252600490820152630c1e0c0d60e21b604082015260600190565b6001600160a01b0381166000818152609a6020526040808220805460ff19166001908117909155609b8054918201815583527fbba9db4cdbea0a37c207bbb83e20f828cd4441c49891101dc94fd20dc8efc3490180546001600160a01b03191684179055517fb6be2187d059cc2a55fe29e0e503b566e1e0f8c8780096e185429350acffd3dd9190a250565b600054610100900460ff16158080156110c45750600054600160ff909116105b806110de5750303b1580156110de575060005460ff166001145b6111415760405162461bcd60e51b815260206004820152602e60248201527f496e697469616c697a61626c653a20636f6e747261637420697320616c72656160448201526d191e481a5b9a5d1a585b1a5e995960921b60648201526084016102dc565b6000805460ff191660011790558015611164576000805461ff0019166101001790555b61116d8261164b565b8015610a59576000805461ff0019169055604051600181527f7f26b83ff96e1f2b6a682f133852f6798a09c465da95921460cefb3847402498906020015b60405180910390a15050565b336000908152609a602052604081205460ff166111e65760405162461bcd60e51b81526004016102dc90611987565b6111ee6113b4565b6001600160a01b0382166000908152609a602052604090205460ff61010090910416151560011461124a5760405162461bcd60e51b81526004016102dc90602080825260049082015263183c189b60e11b604082015260600190565b506001600160a01b03166000908152609a602052604090206001015490565b6112716113fa565b6112796113b4565b6000609e5460ff1660038111156112925761129261176e565b146112c85760405162461bcd60e51b81526004016102dc90602080825260049082015263183c181b60e11b604082015260600190565b610c8d6001611597565b6112da6113fa565b6112e26113b4565b6001609e5460ff1660038111156112fb576112fb61176e565b146113315760405162461bcd60e51b81526004016102dc906020808252600490820152630307831360e41b604082015260600190565b610c8d6002611597565b6113436113fa565b6001600160a01b0381166113a85760405162461bcd60e51b815260206004820152602660248201527f4f776e61626c653a206e6577206f776e657220697320746865207a65726f206160448201526564647265737360d01b60648201526084016102dc565b6113b18161164b565b50565b60655460ff1615610c8d5760405162461bcd60e51b815260206004820152601060248201526f14185d5cd8589b194e881c185d5cd95960821b60448201526064016102dc565b6033546001600160a01b03163314610c8d5760405162461bcd60e51b815260206004820181905260248201527f4f776e61626c653a2063616c6c6572206973206e6f7420746865206f776e657260448201526064016102dc565b61145c6113b4565b609c5460005b8181101561151957609c818154811061147d5761147d6119a5565b906000526020600020906002020160000160405160200161149e9190611c42565b60405160208183030381529060405280519060200120836040516020016114c5919061194b565b60405160208183030381529060405280519060200120036115115760405162461bcd60e51b81526004016102dc90602080825260049082015263060f062760e31b604082015260600190565b600101611462565b505050565b60006115286113b4565b609c5460005b818110156115925782609c828154811061154a5761154a6119a5565b906000526020600020906002020160010154111561158a57609c8181548110611575576115756119a5565b90600052602060002090600202016001015492505b60010161152e565b505090565b609e805460ff811691839160ff191660018360038111156115ba576115ba61176e565b0217905550609e546040517f0a97a4ee45751e2abf3e4fc8946939630b11b371ea8ae39ccdc3056e98f5cc3f916111ab91849160ff1690611d45565b6115fe6113b4565b6065805460ff191660011790557f62e78cea01bee320cd4e420270b5ea74000d11b0c9f74754ebdbfc544b05a2586116333390565b6040516001600160a01b039091168152602001610aa1565b603380546001600160a01b038381166001600160a01b0319831681179093556040519116919082907f8be0079c531659141344cd1fd0a4f28419497f9722a3daafe3b4186f6b6457e090600090a35050565b50805460008255600202906000526020600020908101906113b191905b808211156116de5760006116ce82826116e2565b50600060018201556002016116ba565b5090565b5080546116ee90611a00565b6000825580601f106116fe575050565b601f0160209004906000526020600020908101906113b191905b808211156116de5760008155600101611718565b60006020828403121561173e57600080fd5b5035919050565b60006020828403121561175757600080fd5b8135801515811461176757600080fd5b9392505050565b634e487b7160e01b600052602160045260246000fd5b600481106117a257634e487b7160e01b600052602160045260246000fd5b9052565b602081016117b48284611784565b92915050565b600080602083850312156117cd57600080fd5b823567ffffffffffffffff808211156117e557600080fd5b818501915085601f8301126117f957600080fd5b81358181111561180857600080fd5b86602082850101111561181a57600080fd5b60209290920196919550909350505050565b6000815180845260005b8181101561185257602081850181015186830182015201611836565b506000602082860101526020601f19601f83011685010191505092915050565b60006020808301818452808551808352604092508286019150828160051b87010184880160005b838110156118da57888303603f19018552815180518785526118bd8886018261182c565b918901519489019490945294870194925090860190600101611899565b509098975050505050505050565b600080602083850312156118fb57600080fd5b823567ffffffffffffffff8082111561191357600080fd5b818501915085601f83011261192757600080fd5b81358181111561193657600080fd5b8660208260051b850101111561181a57600080fd5b602081526000611767602083018461182c565b60006020828403121561197057600080fd5b81356001600160a01b038116811461176757600080fd5b6020808252600490820152633078303160e01b604082015260600190565b634e487b7160e01b600052603260045260246000fd5b634e487b7160e01b600052601160045260246000fd5b6000600182016119e3576119e36119bb565b5060010190565b634e487b7160e01b600052604160045260246000fd5b600181811c90821680611a1457607f821691505b602082108103611a3457634e487b7160e01b600052602260045260246000fd5b50919050565b601f82111561151957600081815260208120601f850160051c81016020861015611a615750805b601f850160051c820191505b81811015611a8057828155600101611a6d565b505050505050565b815167ffffffffffffffff811115611aa257611aa26119ea565b611ab681611ab08454611a00565b84611a3a565b602080601f831160018114611aeb5760008415611ad35750858301515b600019600386901b1c1916600185901b178555611a80565b600085815260208120601f198616915b82811015611b1a57888601518255948401946001909101908401611afb565b5085821015611b385787850151600019600388901b60f8161c191681555b5050505050600190811b01905550565b818103818111156117b4576117b46119bb565b60008154611b6881611a00565b808552602060018381168015611b855760018114611b9f57611bcd565b60ff1985168884015283151560051b880183019550611bcd565b866000528260002060005b85811015611bc55781548a8201860152908301908401611baa565b890184019650505b505050505092915050565b60006020808301818452808554808352604092508286019150828160051b870101876000528460002060005b838110156118da57888303603f19018552858352611c2486840183611b5b565b60018381015494890194909452948701949260029092019101611c04565b6020815260006117676020830184611b5b565b60208152816020820152818360408301376000818301604090810191909152601f909201601f19160101919050565b67ffffffffffffffff831115611c9c57611c9c6119ea565b611cb083611caa8354611a00565b83611a3a565b6000601f841160018114611ce45760008515611ccc5750838201355b600019600387901b1c1916600186901b178355611d3e565b600083815260209020601f19861690835b82811015611d155786850135825560209485019460019092019101611cf5565b5086821015611d325760001960f88860031b161c19848701351681555b505060018560011b0183555b5050505050565b60408101611d538285611784565b611767602083018461178456fea2646970667358221220b9997e82045d79a9e431d9e85cfc7e0618c7314c4a1d078496b8772a5030de8364736f6c63430008110033","opcodes":"PUSH1 0xA0 PUSH1 0x40 MSTORE CALLVALUE DUP1 ISZERO PUSH2 0x10 JUMPI PUSH1 0x0 DUP1 REVERT JUMPDEST POP PUSH1 0x40 MLOAD PUSH2 0x1D SWAP1 PUSH2 0x4B JUMP JUMPDEST PUSH1 0x40 MLOAD DUP1 SWAP2 SUB SWAP1 PUSH1 0x0 CREATE DUP1 ISZERO DUP1 ISZERO PUSH2 0x39 JUMPI RETURNDATASIZE PUSH1 0x0 DUP1 RETURNDATACOPY RETURNDATASIZE PUSH1 0x0 REVERT JUMPDEST POP PUSH1 0x1 PUSH1 0x1 PUSH1 0xA0 SHL SUB AND PUSH1 0x80 MSTORE PUSH2 0x58 JUMP JUMPDEST PUSH2 0x1DB6 DUP1 PUSH2 0x240 DUP4 CODECOPY ADD SWAP1 JUMP JUMPDEST PUSH1 0x80 MLOAD PUSH2 0x1CE PUSH2 0x72 PUSH1 0x0 CODECOPY PUSH1 0x0 PUSH1 0x41 ADD MSTORE PUSH2 0x1CE PUSH1 0x0 RETURN INVALID PUSH1 0x80 PUSH1 0x40 MSTORE CALLVALUE DUP1 ISZERO PUSH2 0x10 JUMPI PUSH1 0x0 DUP1 REVERT JUMPDEST POP PUSH1 0x4 CALLDATASIZE LT PUSH2 0x2B JUMPI PUSH1 0x0 CALLDATALOAD PUSH1 0xE0 SHR DUP1 PUSH4 0xF22D605E EQ PUSH2 0x30 JUMPI JUMPDEST PUSH1 0x0 DUP1 REVERT JUMPDEST PUSH2 0x38 PUSH2 0x3A JUMP JUMPDEST STOP JUMPDEST PUSH1 0x0 PUSH2 0x65 PUSH32 0x0 PUSH2 0xFA JUMP JUMPDEST PUSH1 0x40 MLOAD PUSH4 0x189ACDBD PUSH1 0xE3 SHL DUP2 MSTORE CALLER PUSH1 0x4 DUP3 ADD MSTORE SWAP1 SWAP2 POP PUSH1 0x1 PUSH1 0x1 PUSH1 0xA0 SHL SUB DUP3 AND SWAP1 PUSH4 0xC4D66DE8 SWAP1 PUSH1 0x24 ADD PUSH1 0x0 PUSH1 0x40 MLOAD DUP1 DUP4 SUB DUP2 PUSH1 0x0 DUP8 DUP1 EXTCODESIZE ISZERO DUP1 ISZERO PUSH2 0xA9 JUMPI PUSH1 0x0 DUP1 REVERT JUMPDEST POP GAS CALL ISZERO DUP1 ISZERO PUSH2 0xBD JUMPI RETURNDATASIZE PUSH1 0x0 DUP1 RETURNDATACOPY RETURNDATASIZE PUSH1 0x0 REVERT JUMPDEST POP POP PUSH1 0x40 MLOAD PUSH1 0x1 PUSH1 0x1 PUSH1 0xA0 SHL SUB DUP5 AND SWAP3 POP CALLER SWAP2 POP PUSH32 0xDEEBBA25327991DF4AF0788FD4C27A53895CEA8DB060FCF13171FD8D2EE8B75E SWAP1 PUSH1 0x0 SWAP1 LOG3 POP JUMP JUMPDEST PUSH1 0x0 PUSH23 0x3D602D80600A3D3981F3363D3D373D3D3D363D73000000 DUP3 PUSH1 0x60 SHL PUSH1 0xE8 SHR OR PUSH1 0x0 MSTORE PUSH15 0x5AF43D82803E903D91602B57FD5BF3 DUP3 PUSH1 0x78 SHL OR PUSH1 0x20 MSTORE PUSH1 0x37 PUSH1 0x9 PUSH1 0x0 CREATE SWAP1 POP PUSH1 0x1 PUSH1 0x1 PUSH1 0xA0 SHL SUB DUP2 AND PUSH2 0x193 JUMPI PUSH1 0x40 MLOAD PUSH3 0x461BCD PUSH1 0xE5 SHL DUP2 MSTORE PUSH1 0x20 PUSH1 0x4 DUP3 ADD MSTORE PUSH1 0x16 PUSH1 0x24 DUP3 ADD MSTORE PUSH22 0x115490CC4C4D8DCE8818DC99585D194819985A5B1959 PUSH1 0x52 SHL PUSH1 0x44 DUP3 ADD MSTORE PUSH1 0x64 ADD PUSH1 0x40 MLOAD DUP1 SWAP2 SUB SWAP1 REVERT JUMPDEST SWAP2 SWAP1 POP JUMP INVALID LOG2 PUSH5 0x6970667358 0x22 SLT KECCAK256 SWAP9 0xCE ADDRESS SWAP7 0x1F PUSH6 0x57190BDB3ECC PUSH7 0x8ECE91097DDF43 INVALID 0x24 0xFC 0xB8 0xAD 0xC0 SWAP2 0xF7 0xDB NOT 0xBE BALANCE PUSH5 0x736F6C6343 STOP ADDMOD GT STOP CALLER PUSH1 0x80 PUSH1 0x40 MSTORE CALLVALUE DUP1 ISZERO PUSH2 0x10 JUMPI PUSH1 0x0 DUP1 REVERT JUMPDEST POP PUSH2 0x1D96 DUP1 PUSH2 0x20 PUSH1 0x0 CODECOPY PUSH1 0x0 RETURN INVALID PUSH1 0x80 PUSH1 0x40 MSTORE CALLVALUE DUP1 ISZERO PUSH2 0x10 JUMPI PUSH1 0x0 DUP1 REVERT JUMPDEST POP PUSH1 0x4 CALLDATASIZE LT PUSH2 0x137 JUMPI PUSH1 0x0 CALLDATALOAD PUSH1 0xE0 SHR DUP1 PUSH4 0x837B2A38 GT PUSH2 0xB8 JUMPI DUP1 PUSH4 0xB6A5D7DE GT PUSH2 0x7C JUMPI DUP1 PUSH4 0xB6A5D7DE EQ PUSH2 0x243 JUMPI DUP1 PUSH4 0xC4D66DE8 EQ PUSH2 0x256 JUMPI DUP1 PUSH4 0xD75BB9E5 EQ PUSH2 0x269 JUMPI DUP1 PUSH4 0xE09B8C79 EQ PUSH2 0x28A JUMPI DUP1 PUSH4 0xEE74C678 EQ PUSH2 0x292 JUMPI DUP1 PUSH4 0xF2FDE38B EQ PUSH2 0x29A JUMPI PUSH1 0x0 DUP1 REVERT JUMPDEST DUP1 PUSH4 0x837B2A38 EQ PUSH2 0x1F0 JUMPI DUP1 PUSH4 0x8CDDCCBA EQ PUSH2 0x203 JUMPI DUP1 PUSH4 0x8DA5CB5B EQ PUSH2 0x20B JUMPI DUP1 PUSH4 0x8DE5B121 EQ PUSH2 0x226 JUMPI DUP1 PUSH4 0x8E7EA5B2 EQ PUSH2 0x23B JUMPI PUSH1 0x0 DUP1 REVERT JUMPDEST DUP1 PUSH4 0x5BBE6D6A GT PUSH2 0xFF JUMPI DUP1 PUSH4 0x5BBE6D6A EQ PUSH2 0x1A2 JUMPI DUP1 PUSH4 0x5C975ABB EQ PUSH2 0x1AA JUMPI DUP1 PUSH4 0x67469356 EQ PUSH2 0x1C0 JUMPI DUP1 PUSH4 0x6A15B154 EQ PUSH2 0x1D5 JUMPI DUP1 PUSH4 0x715018A6 EQ PUSH2 0x1E8 JUMPI PUSH1 0x0 DUP1 REVERT JUMPDEST DUP1 PUSH4 0x121B93F EQ PUSH2 0x13C JUMPI DUP1 PUSH4 0x140CF04C EQ PUSH2 0x151 JUMPI DUP1 PUSH4 0x19F41A40 EQ PUSH2 0x164 JUMPI DUP1 PUSH4 0x2F95355B EQ PUSH2 0x187 JUMPI DUP1 PUSH4 0x378A2178 EQ PUSH2 0x19A JUMPI JUMPDEST PUSH1 0x0 DUP1 REVERT JUMPDEST PUSH2 0x14F PUSH2 0x14A CALLDATASIZE PUSH1 0x4 PUSH2 0x172C JUMP JUMPDEST PUSH2 0x2AD JUMP JUMPDEST STOP JUMPDEST PUSH2 0x14F PUSH2 0x15F CALLDATASIZE PUSH1 0x4 PUSH2 0x1745 JUMP JUMPDEST PUSH2 0x41F JUMP JUMPDEST PUSH1 0x9E SLOAD PUSH2 0x171 SWAP1 PUSH1 0xFF AND DUP2 JUMP JUMPDEST PUSH1 0x40 MLOAD PUSH2 0x17E SWAP2 SWAP1 PUSH2 0x17A6 JUMP JUMPDEST PUSH1 0x40 MLOAD DUP1 SWAP2 SUB SWAP1 RETURN JUMPDEST PUSH2 0x14F PUSH2 0x195 CALLDATASIZE PUSH1 0x4 PUSH2 0x17BA JUMP JUMPDEST PUSH2 0x4C5 JUMP JUMPDEST PUSH2 0x14F PUSH2 0x68C JUMP JUMPDEST PUSH2 0x14F PUSH2 0xA5D JUMP JUMPDEST PUSH1 0x65 SLOAD PUSH1 0xFF AND PUSH1 0x40 MLOAD SWAP1 ISZERO ISZERO DUP2 MSTORE PUSH1 0x20 ADD PUSH2 0x17E JUMP JUMPDEST PUSH2 0x1C8 PUSH2 0xAAB JUMP JUMPDEST PUSH1 0x40 MLOAD PUSH2 0x17E SWAP2 SWAP1 PUSH2 0x1872 JUMP JUMPDEST PUSH2 0x14F PUSH2 0x1E3 CALLDATASIZE PUSH1 0x4 PUSH2 0x18E8 JUMP JUMPDEST PUSH2 0xBDE JUMP JUMPDEST PUSH2 0x14F PUSH2 0xC7B JUMP JUMPDEST PUSH2 0x14F PUSH2 0x1FE CALLDATASIZE PUSH1 0x4 PUSH2 0x17BA JUMP JUMPDEST PUSH2 0xC8F JUMP JUMPDEST PUSH2 0x14F PUSH2 0xD63 JUMP JUMPDEST PUSH1 0x33 SLOAD PUSH1 0x40 MLOAD PUSH1 0x1 PUSH1 0x1 PUSH1 0xA0 SHL SUB SWAP1 SWAP2 AND DUP2 MSTORE PUSH1 0x20 ADD PUSH2 0x17E JUMP JUMPDEST PUSH2 0x22E PUSH2 0xDCC JUMP JUMPDEST PUSH1 0x40 MLOAD PUSH2 0x17E SWAP2 SWAP1 PUSH2 0x194B JUMP JUMPDEST PUSH2 0x22E PUSH2 0xE5A JUMP JUMPDEST PUSH2 0x14F PUSH2 0x251 CALLDATASIZE PUSH1 0x4 PUSH2 0x195E JUMP JUMPDEST PUSH2 0xF67 JUMP JUMPDEST PUSH2 0x14F PUSH2 0x264 CALLDATASIZE PUSH1 0x4 PUSH2 0x195E JUMP JUMPDEST PUSH2 0x10A4 JUMP JUMPDEST PUSH2 0x27C PUSH2 0x277 CALLDATASIZE PUSH1 0x4 PUSH2 0x195E JUMP JUMPDEST PUSH2 0x11B7 JUMP JUMPDEST PUSH1 0x40 MLOAD SWAP1 DUP2 MSTORE PUSH1 0x20 ADD PUSH2 0x17E JUMP JUMPDEST PUSH2 0x14F PUSH2 0x1269 JUMP JUMPDEST PUSH2 0x14F PUSH2 0x12D2 JUMP JUMPDEST PUSH2 0x14F PUSH2 0x2A8 CALLDATASIZE PUSH1 0x4 PUSH2 0x195E JUMP JUMPDEST PUSH2 0x133B JUMP JUMPDEST CALLER PUSH1 0x0 SWAP1 DUP2 MSTORE PUSH1 0x9A PUSH1 0x20 MSTORE PUSH1 0x40 SWAP1 KECCAK256 SLOAD PUSH1 0xFF AND PUSH2 0x2E5 JUMPI PUSH1 0x40 MLOAD PUSH3 0x461BCD PUSH1 0xE5 SHL DUP2 MSTORE PUSH1 0x4 ADD PUSH2 0x2DC SWAP1 PUSH2 0x1987 JUMP JUMPDEST PUSH1 0x40 MLOAD DUP1 SWAP2 SUB SWAP1 REVERT JUMPDEST PUSH2 0x2ED PUSH2 0x13B4 JUMP JUMPDEST PUSH1 0x2 PUSH1 0x9E SLOAD PUSH1 0xFF AND PUSH1 0x3 DUP2 GT ISZERO PUSH2 0x306 JUMPI PUSH2 0x306 PUSH2 0x176E JUMP JUMPDEST EQ PUSH2 0x33C JUMPI PUSH1 0x40 MLOAD PUSH3 0x461BCD PUSH1 0xE5 SHL DUP2 MSTORE PUSH1 0x4 ADD PUSH2 0x2DC SWAP1 PUSH1 0x20 DUP1 DUP3 MSTORE PUSH1 0x4 SWAP1 DUP3 ADD MSTORE PUSH4 0x30783131 PUSH1 0xE0 SHL PUSH1 0x40 DUP3 ADD MSTORE PUSH1 0x60 ADD SWAP1 JUMP JUMPDEST CALLER PUSH1 0x0 SWAP1 DUP2 MSTORE PUSH1 0x9A PUSH1 0x20 MSTORE PUSH1 0x40 SWAP1 KECCAK256 SLOAD PUSH2 0x100 SWAP1 DIV PUSH1 0xFF AND ISZERO PUSH2 0x38A JUMPI PUSH1 0x40 MLOAD PUSH3 0x461BCD PUSH1 0xE5 SHL DUP2 MSTORE PUSH1 0x4 ADD PUSH2 0x2DC SWAP1 PUSH1 0x20 DUP1 DUP3 MSTORE PUSH1 0x4 SWAP1 DUP3 ADD MSTORE PUSH4 0x183C1899 PUSH1 0xE1 SHL PUSH1 0x40 DUP3 ADD MSTORE PUSH1 0x60 ADD SWAP1 JUMP JUMPDEST CALLER PUSH1 0x0 SWAP1 DUP2 MSTORE PUSH1 0x9A PUSH1 0x20 MSTORE PUSH1 0x40 SWAP1 KECCAK256 DUP1 SLOAD PUSH2 0xFF00 NOT AND PUSH2 0x100 OR DUP2 SSTORE PUSH1 0x1 ADD DUP2 SWAP1 SSTORE PUSH1 0x9C DUP1 SLOAD DUP3 SWAP1 DUP2 LT PUSH2 0x3C0 JUMPI PUSH2 0x3C0 PUSH2 0x19A5 JUMP JUMPDEST SWAP1 PUSH1 0x0 MSTORE PUSH1 0x20 PUSH1 0x0 KECCAK256 SWAP1 PUSH1 0x2 MUL ADD PUSH1 0x1 ADD PUSH1 0x0 DUP2 SLOAD PUSH2 0x3DE SWAP1 PUSH2 0x19D1 JUMP JUMPDEST SWAP1 SWAP2 SSTORE POP PUSH1 0x40 DUP1 MLOAD CALLER DUP2 MSTORE PUSH1 0x20 DUP2 ADD DUP4 SWAP1 MSTORE PUSH32 0x4D99B957A2BC29A30EBD96A7BE8E68FE50A3C701DB28A91436490B7D53870CA4 SWAP2 ADD JUMPDEST PUSH1 0x40 MLOAD DUP1 SWAP2 SUB SWAP1 LOG1 POP JUMP JUMPDEST PUSH2 0x427 PUSH2 0x13FA JUMP JUMPDEST PUSH2 0x42F PUSH2 0x13B4 JUMP JUMPDEST PUSH1 0x0 PUSH1 0x9E SLOAD PUSH1 0xFF AND PUSH1 0x3 DUP2 GT ISZERO PUSH2 0x448 JUMPI PUSH2 0x448 PUSH2 0x176E JUMP JUMPDEST EQ PUSH2 0x47E JUMPI PUSH1 0x40 MLOAD PUSH3 0x461BCD PUSH1 0xE5 SHL DUP2 MSTORE PUSH1 0x4 ADD PUSH2 0x2DC SWAP1 PUSH1 0x20 DUP1 DUP3 MSTORE PUSH1 0x4 SWAP1 DUP3 ADD MSTORE PUSH4 0x30783035 PUSH1 0xE0 SHL PUSH1 0x40 DUP3 ADD MSTORE PUSH1 0x60 ADD SWAP1 JUMP JUMPDEST PUSH1 0x99 DUP1 SLOAD PUSH1 0xFF NOT AND DUP3 ISZERO ISZERO SWAP1 DUP2 OR SWAP1 SWAP2 SSTORE PUSH1 0x40 MLOAD PUSH1 0xFF SWAP1 SWAP2 AND ISZERO ISZERO DUP2 MSTORE PUSH32 0xF62C037A5C83E88C43CEAC786E19D059D653C8346EEE23A05752E7202A4F403E SWAP1 PUSH1 0x20 ADD PUSH2 0x414 JUMP JUMPDEST CALLER PUSH1 0x0 SWAP1 DUP2 MSTORE PUSH1 0x9A PUSH1 0x20 MSTORE PUSH1 0x40 SWAP1 KECCAK256 SLOAD PUSH1 0xFF AND PUSH2 0x4F4 JUMPI PUSH1 0x40 MLOAD PUSH3 0x461BCD PUSH1 0xE5 SHL DUP2 MSTORE PUSH1 0x4 ADD PUSH2 0x2DC SWAP1 PUSH2 0x1987 JUMP JUMPDEST PUSH2 0x4FC PUSH2 0x13B4 JUMP JUMPDEST PUSH1 0x1 PUSH1 0x9E SLOAD PUSH1 0xFF AND PUSH1 0x3 DUP2 GT ISZERO PUSH2 0x515 JUMPI PUSH2 0x515 PUSH2 0x176E JUMP JUMPDEST EQ PUSH2 0x54B JUMPI PUSH1 0x40 MLOAD PUSH3 0x461BCD PUSH1 0xE5 SHL DUP2 MSTORE PUSH1 0x4 ADD PUSH2 0x2DC SWAP1 PUSH1 0x20 DUP1 DUP3 MSTORE PUSH1 0x4 SWAP1 DUP3 ADD MSTORE PUSH4 0x30783037 PUSH1 0xE0 SHL PUSH1 0x40 DUP3 ADD MSTORE PUSH1 0x60 ADD SWAP1 JUMP JUMPDEST PUSH1 0x33 SLOAD PUSH1 0x1 PUSH1 0x1 PUSH1 0xA0 SHL SUB AND CALLER EQ PUSH2 0x59D JUMPI PUSH1 0x99 SLOAD PUSH1 0xFF AND ISZERO ISZERO PUSH1 0x1 EQ PUSH2 0x59D JUMPI PUSH1 0x40 MLOAD PUSH3 0x461BCD PUSH1 0xE5 SHL DUP2 MSTORE PUSH1 0x4 ADD PUSH2 0x2DC SWAP1 PUSH1 0x20 DUP1 DUP3 MSTORE PUSH1 0x4 SWAP1 DUP3 ADD MSTORE PUSH4 0x60F0607 PUSH1 0xE3 SHL PUSH1 0x40 DUP3 ADD MSTORE PUSH1 0x60 ADD SWAP1 JUMP JUMPDEST PUSH1 0x40 DUP1 MLOAD DUP1 DUP3 ADD SWAP1 SWAP2 MSTORE PUSH1 0x60 DUP2 MSTORE PUSH1 0x0 PUSH1 0x20 DUP3 ADD MSTORE DUP3 DUP3 DUP1 DUP1 PUSH1 0x1F ADD PUSH1 0x20 DUP1 SWAP2 DIV MUL PUSH1 0x20 ADD PUSH1 0x40 MLOAD SWAP1 DUP2 ADD PUSH1 0x40 MSTORE DUP1 SWAP4 SWAP3 SWAP2 SWAP1 DUP2 DUP2 MSTORE PUSH1 0x20 ADD DUP4 DUP4 DUP1 DUP3 DUP5 CALLDATACOPY PUSH1 0x0 SWAP3 ADD SWAP2 SWAP1 SWAP2 MSTORE POP POP POP DUP2 DUP4 MSTORE POP PUSH2 0x5F4 SWAP1 PUSH2 0x1454 JUMP JUMPDEST PUSH1 0x9C DUP1 SLOAD PUSH1 0x1 DUP2 ADD DUP3 SSTORE PUSH1 0x0 SWAP2 SWAP1 SWAP2 MSTORE DUP2 MLOAD DUP3 SWAP2 PUSH1 0x2 MUL PUSH32 0xAF85B9071DFAFEAC1409D3F1D19BAFC9BC7C37974CDE8DF0EE6168F0086E539C ADD SWAP1 DUP2 SWAP1 PUSH2 0x63A SWAP1 DUP3 PUSH2 0x1A88 JUMP JUMPDEST POP PUSH1 0x20 SWAP2 SWAP1 SWAP2 ADD MLOAD PUSH1 0x1 SWAP2 DUP3 ADD SSTORE PUSH1 0x9C SLOAD PUSH32 0x92E393E9B54E2F801D3EA4BEB0C5E71A21CC34A5D34B77D0FB8A3AA1650DC18F SWAP2 PUSH2 0x676 SWAP2 PUSH2 0x1B48 JUMP JUMPDEST PUSH1 0x40 MLOAD SWAP1 DUP2 MSTORE PUSH1 0x20 ADD PUSH1 0x40 MLOAD DUP1 SWAP2 SUB SWAP1 LOG1 POP POP POP JUMP JUMPDEST PUSH2 0x694 PUSH2 0x13FA JUMP JUMPDEST PUSH2 0x69C PUSH2 0x13B4 JUMP JUMPDEST PUSH1 0x3 PUSH1 0x9E SLOAD PUSH1 0xFF AND PUSH1 0x3 DUP2 GT ISZERO PUSH2 0x6B5 JUMPI PUSH2 0x6B5 PUSH2 0x176E JUMP JUMPDEST EQ PUSH2 0x6EB JUMPI PUSH1 0x40 MLOAD PUSH3 0x461BCD PUSH1 0xE5 SHL DUP2 MSTORE PUSH1 0x4 ADD PUSH2 0x2DC SWAP1 PUSH1 0x20 DUP1 DUP3 MSTORE PUSH1 0x4 SWAP1 DUP3 ADD MSTORE PUSH4 0x30783135 PUSH1 0xE0 SHL PUSH1 0x40 DUP3 ADD MSTORE PUSH1 0x60 ADD SWAP1 JUMP JUMPDEST PUSH1 0x0 PUSH2 0x6F5 PUSH2 0x151E JUMP JUMPDEST PUSH1 0x9C SLOAD SWAP1 SWAP2 POP PUSH1 0x0 JUMPDEST DUP2 DUP2 LT ISZERO PUSH2 0x836 JUMPI DUP3 PUSH1 0x9C DUP3 DUP2 SLOAD DUP2 LT PUSH2 0x71A JUMPI PUSH2 0x71A PUSH2 0x19A5 JUMP JUMPDEST SWAP1 PUSH1 0x0 MSTORE PUSH1 0x20 PUSH1 0x0 KECCAK256 SWAP1 PUSH1 0x2 MUL ADD PUSH1 0x1 ADD SLOAD SUB PUSH2 0x82E JUMPI DUP1 PUSH1 0x97 DUP2 SWAP1 SSTORE POP PUSH1 0x9D PUSH1 0x40 MLOAD DUP1 PUSH1 0x40 ADD PUSH1 0x40 MSTORE DUP1 PUSH1 0x9C DUP5 DUP2 SLOAD DUP2 LT PUSH2 0x758 JUMPI PUSH2 0x758 PUSH2 0x19A5 JUMP JUMPDEST SWAP1 PUSH1 0x0 MSTORE PUSH1 0x20 PUSH1 0x0 KECCAK256 SWAP1 PUSH1 0x2 MUL ADD PUSH1 0x0 ADD DUP1 SLOAD PUSH2 0x774 SWAP1 PUSH2 0x1A00 JUMP JUMPDEST DUP1 PUSH1 0x1F ADD PUSH1 0x20 DUP1 SWAP2 DIV MUL PUSH1 0x20 ADD PUSH1 0x40 MLOAD SWAP1 DUP2 ADD PUSH1 0x40 MSTORE DUP1 SWAP3 SWAP2 SWAP1 DUP2 DUP2 MSTORE PUSH1 0x20 ADD DUP3 DUP1 SLOAD PUSH2 0x7A0 SWAP1 PUSH2 0x1A00 JUMP JUMPDEST DUP1 ISZERO PUSH2 0x7ED JUMPI DUP1 PUSH1 0x1F LT PUSH2 0x7C2 JUMPI PUSH2 0x100 DUP1 DUP4 SLOAD DIV MUL DUP4 MSTORE SWAP2 PUSH1 0x20 ADD SWAP2 PUSH2 0x7ED JUMP JUMPDEST DUP3 ADD SWAP2 SWAP1 PUSH1 0x0 MSTORE PUSH1 0x20 PUSH1 0x0 KECCAK256 SWAP1 JUMPDEST DUP2 SLOAD DUP2 MSTORE SWAP1 PUSH1 0x1 ADD SWAP1 PUSH1 0x20 ADD DUP1 DUP4 GT PUSH2 0x7D0 JUMPI DUP3 SWAP1 SUB PUSH1 0x1F AND DUP3 ADD SWAP2 JUMPDEST POP POP POP SWAP2 DUP4 MSTORE POP POP PUSH1 0x0 PUSH1 0x20 SWAP2 DUP3 ADD DUP2 SWAP1 MSTORE DUP4 SLOAD PUSH1 0x1 DUP2 ADD DUP6 SSTORE SWAP4 DUP2 MSTORE KECCAK256 DUP2 MLOAD SWAP2 SWAP3 PUSH1 0x2 MUL ADD SWAP1 DUP2 SWAP1 PUSH2 0x820 SWAP1 DUP3 PUSH2 0x1A88 JUMP JUMPDEST POP PUSH1 0x20 DUP3 ADD MLOAD DUP2 PUSH1 0x1 ADD SSTORE POP POP JUMPDEST PUSH1 0x1 ADD PUSH2 0x6FE JUMP JUMPDEST POP PUSH1 0x9D SLOAD PUSH1 0x1 LT ISZERO PUSH2 0xA59 JUMPI PUSH32 0xC82F34EF638FB910FCE17DC38C3C042E22B138D5A6EE727B081721FF6AA0FC69 PUSH1 0x9D PUSH1 0x40 MLOAD PUSH2 0x872 SWAP2 SWAP1 PUSH2 0x1BD8 JUMP JUMPDEST PUSH1 0x40 MLOAD DUP1 SWAP2 SUB SWAP1 LOG1 PUSH2 0x886 PUSH1 0x9C PUSH1 0x0 PUSH2 0x169D JUMP JUMPDEST PUSH1 0x9D SLOAD PUSH1 0x0 JUMPDEST DUP2 DUP2 LT ISZERO PUSH2 0x990 JUMPI PUSH1 0x9C PUSH1 0x40 MLOAD DUP1 PUSH1 0x40 ADD PUSH1 0x40 MSTORE DUP1 PUSH1 0x9D DUP5 DUP2 SLOAD DUP2 LT PUSH2 0x8B4 JUMPI PUSH2 0x8B4 PUSH2 0x19A5 JUMP JUMPDEST SWAP1 PUSH1 0x0 MSTORE PUSH1 0x20 PUSH1 0x0 KECCAK256 SWAP1 PUSH1 0x2 MUL ADD PUSH1 0x0 ADD DUP1 SLOAD PUSH2 0x8D0 SWAP1 PUSH2 0x1A00 JUMP JUMPDEST DUP1 PUSH1 0x1F ADD PUSH1 0x20 DUP1 SWAP2 DIV MUL PUSH1 0x20 ADD PUSH1 0x40 MLOAD SWAP1 DUP2 ADD PUSH1 0x40 MSTORE DUP1 SWAP3 SWAP2 SWAP1 DUP2 DUP2 MSTORE PUSH1 0x20 ADD DUP3 DUP1 SLOAD PUSH2 0x8FC SWAP1 PUSH2 0x1A00 JUMP JUMPDEST DUP1 ISZERO PUSH2 0x949 JUMPI DUP1 PUSH1 0x1F LT PUSH2 0x91E JUMPI PUSH2 0x100 DUP1 DUP4 SLOAD DIV MUL DUP4 MSTORE SWAP2 PUSH1 0x20 ADD SWAP2 PUSH2 0x949 JUMP JUMPDEST DUP3 ADD SWAP2 SWAP1 PUSH1 0x0 MSTORE PUSH1 0x20 PUSH1 0x0 KECCAK256 SWAP1 JUMPDEST DUP2 SLOAD DUP2 MSTORE SWAP1 PUSH1 0x1 ADD SWAP1 PUSH1 0x20 ADD DUP1 DUP4 GT PUSH2 0x92C JUMPI DUP3 SWAP1 SUB PUSH1 0x1F AND DUP3 ADD SWAP2 JUMPDEST POP POP POP SWAP2 DUP4 MSTORE POP POP PUSH1 0x0 PUSH1 0x20 SWAP2 DUP3 ADD DUP2 SWAP1 MSTORE DUP4 SLOAD PUSH1 0x1 DUP2 ADD DUP6 SSTORE SWAP4 DUP2 MSTORE KECCAK256 DUP2 MLOAD SWAP2 SWAP3 PUSH1 0x2 MUL ADD SWAP1 DUP2 SWAP1 PUSH2 0x97C SWAP1 DUP3 PUSH2 0x1A88 JUMP JUMPDEST POP PUSH1 0x20 SWAP2 SWAP1 SWAP2 ADD MLOAD PUSH1 0x1 SWAP2 DUP3 ADD SSTORE ADD PUSH2 0x88C JUMP JUMPDEST POP PUSH2 0x99D PUSH1 0x9D PUSH1 0x0 PUSH2 0x169D JUMP JUMPDEST PUSH1 0x9B SLOAD PUSH1 0x0 JUMPDEST DUP2 DUP2 LT ISZERO PUSH2 0xA4B JUMPI PUSH1 0x0 PUSH1 0x9A PUSH1 0x0 PUSH1 0x9B DUP5 DUP2 SLOAD DUP2 LT PUSH2 0x9C4 JUMPI PUSH2 0x9C4 PUSH2 0x19A5 JUMP JUMPDEST PUSH1 0x0 SWAP2 DUP3 MSTORE PUSH1 0x20 DUP1 DUP4 KECCAK256 SWAP1 SWAP2 ADD SLOAD PUSH1 0x1 PUSH1 0x1 PUSH1 0xA0 SHL SUB AND DUP4 MSTORE DUP3 ADD SWAP3 SWAP1 SWAP3 MSTORE PUSH1 0x40 ADD DUP2 KECCAK256 DUP1 SLOAD SWAP3 ISZERO ISZERO PUSH2 0x100 MUL PUSH2 0xFF00 NOT SWAP1 SWAP4 AND SWAP3 SWAP1 SWAP3 OR SWAP1 SWAP2 SSTORE PUSH1 0x9B DUP1 SLOAD PUSH1 0x9A SWAP2 DUP4 SWAP2 DUP6 SWAP1 DUP2 LT PUSH2 0xA18 JUMPI PUSH2 0xA18 PUSH2 0x19A5 JUMP JUMPDEST PUSH1 0x0 SWAP2 DUP3 MSTORE PUSH1 0x20 DUP1 DUP4 KECCAK256 SWAP1 SWAP2 ADD SLOAD PUSH1 0x1 PUSH1 0x1 PUSH1 0xA0 SHL SUB AND DUP4 MSTORE DUP3 ADD SWAP3 SWAP1 SWAP3 MSTORE PUSH1 0x40 ADD SWAP1 KECCAK256 PUSH1 0x1 SWAP1 DUP2 ADD SWAP2 SWAP1 SWAP2 SSTORE ADD PUSH2 0x9A3 JUMP JUMPDEST POP PUSH2 0xA56 PUSH1 0x2 PUSH2 0x1597 JUMP JUMPDEST POP POP JUMPDEST POP POP JUMP JUMPDEST PUSH2 0xA65 PUSH2 0x13FA JUMP JUMPDEST PUSH2 0xA6D PUSH2 0x13B4 JUMP JUMPDEST PUSH2 0xA75 PUSH2 0x15F6 JUMP JUMPDEST PUSH1 0x40 MLOAD ADDRESS DUP2 MSTORE PUSH32 0x5E8652B9D1A24D82BFE7A9BFAE71E26899D688827382D41F69B1C79342C586AA SWAP1 PUSH1 0x20 ADD JUMPDEST PUSH1 0x40 MLOAD DUP1 SWAP2 SUB SWAP1 LOG1 JUMP JUMPDEST CALLER PUSH1 0x0 SWAP1 DUP2 MSTORE PUSH1 0x9A PUSH1 0x20 MSTORE PUSH1 0x40 SWAP1 KECCAK256 SLOAD PUSH1 0x60 SWAP1 PUSH1 0xFF AND PUSH2 0xADD JUMPI PUSH1 0x40 MLOAD PUSH3 0x461BCD PUSH1 0xE5 SHL DUP2 MSTORE PUSH1 0x4 ADD PUSH2 0x2DC SWAP1 PUSH2 0x1987 JUMP JUMPDEST PUSH2 0xAE5 PUSH2 0x13B4 JUMP JUMPDEST PUSH1 0x9C DUP1 SLOAD DUP1 PUSH1 0x20 MUL PUSH1 0x20 ADD PUSH1 0x40 MLOAD SWAP1 DUP2 ADD PUSH1 0x40 MSTORE DUP1 SWAP3 SWAP2 SWAP1 DUP2 DUP2 MSTORE PUSH1 0x20 ADD PUSH1 0x0 SWAP1 JUMPDEST DUP3 DUP3 LT ISZERO PUSH2 0xBD5 JUMPI DUP4 DUP3 SWAP1 PUSH1 0x0 MSTORE PUSH1 0x20 PUSH1 0x0 KECCAK256 SWAP1 PUSH1 0x2 MUL ADD PUSH1 0x40 MLOAD DUP1 PUSH1 0x40 ADD PUSH1 0x40 MSTORE SWAP1 DUP2 PUSH1 0x0 DUP3 ADD DUP1 SLOAD PUSH2 0xB3A SWAP1 PUSH2 0x1A00 JUMP JUMPDEST DUP1 PUSH1 0x1F ADD PUSH1 0x20 DUP1 SWAP2 DIV MUL PUSH1 0x20 ADD PUSH1 0x40 MLOAD SWAP1 DUP2 ADD PUSH1 0x40 MSTORE DUP1 SWAP3 SWAP2 SWAP1 DUP2 DUP2 MSTORE PUSH1 0x20 ADD DUP3 DUP1 SLOAD PUSH2 0xB66 SWAP1 PUSH2 0x1A00 JUMP JUMPDEST DUP1 ISZERO PUSH2 0xBB3 JUMPI DUP1 PUSH1 0x1F LT PUSH2 0xB88 JUMPI PUSH2 0x100 DUP1 DUP4 SLOAD DIV MUL DUP4 MSTORE SWAP2 PUSH1 0x20 ADD SWAP2 PUSH2 0xBB3 JUMP JUMPDEST DUP3 ADD SWAP2 SWAP1 PUSH1 0x0 MSTORE PUSH1 0x20 PUSH1 0x0 KECCAK256 SWAP1 JUMPDEST DUP2 SLOAD DUP2 MSTORE SWAP1 PUSH1 0x1 ADD SWAP1 PUSH1 0x20 ADD DUP1 DUP4 GT PUSH2 0xB96 JUMPI DUP3 SWAP1 SUB PUSH1 0x1F AND DUP3 ADD SWAP2 JUMPDEST POP POP POP POP POP DUP2 MSTORE PUSH1 0x20 ADD PUSH1 0x1 DUP3 ADD SLOAD DUP2 MSTORE POP POP DUP2 MSTORE PUSH1 0x20 ADD SWAP1 PUSH1 0x1 ADD SWAP1 PUSH2 0xB07 JUMP JUMPDEST POP POP POP POP SWAP1 POP SWAP1 JUMP JUMPDEST PUSH2 0xBE6 PUSH2 0x13FA JUMP JUMPDEST PUSH2 0xBEE PUSH2 0x13B4 JUMP JUMPDEST PUSH1 0x0 PUSH1 0x9E SLOAD PUSH1 0xFF AND PUSH1 0x3 DUP2 GT ISZERO PUSH2 0xC07 JUMPI PUSH2 0xC07 PUSH2 0x176E JUMP JUMPDEST EQ PUSH2 0xC3D JUMPI PUSH1 0x40 MLOAD PUSH3 0x461BCD PUSH1 0xE5 SHL DUP2 MSTORE PUSH1 0x4 ADD PUSH2 0x2DC SWAP1 PUSH1 0x20 DUP1 DUP3 MSTORE PUSH1 0x4 SWAP1 DUP3 ADD MSTORE PUSH4 0x30783033 PUSH1 0xE0 SHL PUSH1 0x40 DUP3 ADD MSTORE PUSH1 0x60 ADD SWAP1 JUMP JUMPDEST DUP1 PUSH1 0x0 JUMPDEST DUP2 DUP2 LT ISZERO PUSH2 0xA56 JUMPI PUSH2 0xC73 DUP5 DUP5 DUP4 DUP2 DUP2 LT PUSH2 0xC5E JUMPI PUSH2 0xC5E PUSH2 0x19A5 JUMP JUMPDEST SWAP1 POP PUSH1 0x20 MUL ADD PUSH1 0x20 DUP2 ADD SWAP1 PUSH2 0x251 SWAP2 SWAP1 PUSH2 0x195E JUMP JUMPDEST PUSH1 0x1 ADD PUSH2 0xC41 JUMP JUMPDEST PUSH2 0xC83 PUSH2 0x13FA JUMP JUMPDEST PUSH2 0xC8D PUSH1 0x0 PUSH2 0x164B JUMP JUMPDEST JUMP JUMPDEST PUSH2 0xC97 PUSH2 0x13FA JUMP JUMPDEST PUSH2 0xC9F PUSH2 0x13B4 JUMP JUMPDEST PUSH1 0x98 PUSH1 0x40 MLOAD PUSH1 0x20 ADD PUSH2 0xCB1 SWAP2 SWAP1 PUSH2 0x1C42 JUMP JUMPDEST PUSH1 0x40 MLOAD PUSH1 0x20 DUP2 DUP4 SUB SUB DUP2 MSTORE SWAP1 PUSH1 0x40 MSTORE DUP1 MLOAD SWAP1 PUSH1 0x20 ADD KECCAK256 DUP3 DUP3 PUSH1 0x40 MLOAD PUSH1 0x20 ADD PUSH2 0xCDA SWAP3 SWAP2 SWAP1 PUSH2 0x1C55 JUMP JUMPDEST PUSH1 0x40 MLOAD PUSH1 0x20 DUP2 DUP4 SUB SUB DUP2 MSTORE SWAP1 PUSH1 0x40 MSTORE DUP1 MLOAD SWAP1 PUSH1 0x20 ADD KECCAK256 SUB PUSH2 0xD26 JUMPI PUSH1 0x40 MLOAD PUSH3 0x461BCD PUSH1 0xE5 SHL DUP2 MSTORE PUSH1 0x4 ADD PUSH2 0x2DC SWAP1 PUSH1 0x20 DUP1 DUP3 MSTORE PUSH1 0x4 SWAP1 DUP3 ADD MSTORE PUSH4 0x183C1819 PUSH1 0xE1 SHL PUSH1 0x40 DUP3 ADD MSTORE PUSH1 0x60 ADD SWAP1 JUMP JUMPDEST PUSH1 0x98 PUSH2 0xD33 DUP3 DUP5 DUP4 PUSH2 0x1C84 JUMP JUMPDEST POP PUSH1 0x40 MLOAD ADDRESS SWAP1 PUSH32 0x2C1EE3D7AD30F784F159CCE0593BD788AB29707C43342032EACA5529CAE38381 SWAP1 PUSH1 0x0 SWAP1 LOG2 POP POP JUMP JUMPDEST PUSH2 0xD6B PUSH2 0x13FA JUMP JUMPDEST PUSH2 0xD73 PUSH2 0x13B4 JUMP JUMPDEST PUSH1 0x2 PUSH1 0x9E SLOAD PUSH1 0xFF AND PUSH1 0x3 DUP2 GT ISZERO PUSH2 0xD8C JUMPI PUSH2 0xD8C PUSH2 0x176E JUMP JUMPDEST EQ PUSH2 0xDC2 JUMPI PUSH1 0x40 MLOAD PUSH3 0x461BCD PUSH1 0xE5 SHL DUP2 MSTORE PUSH1 0x4 ADD PUSH2 0x2DC SWAP1 PUSH1 0x20 DUP1 DUP3 MSTORE PUSH1 0x4 SWAP1 DUP3 ADD MSTORE PUSH4 0xC1E0C4D PUSH1 0xE2 SHL PUSH1 0x40 DUP3 ADD MSTORE PUSH1 0x60 ADD SWAP1 JUMP JUMPDEST PUSH2 0xC8D PUSH1 0x3 PUSH2 0x1597 JUMP JUMPDEST PUSH1 0x98 DUP1 SLOAD PUSH2 0xDD9 SWAP1 PUSH2 0x1A00 JUMP JUMPDEST DUP1 PUSH1 0x1F ADD PUSH1 0x20 DUP1 SWAP2 DIV MUL PUSH1 0x20 ADD PUSH1 0x40 MLOAD SWAP1 DUP2 ADD PUSH1 0x40 MSTORE DUP1 SWAP3 SWAP2 SWAP1 DUP2 DUP2 MSTORE PUSH1 0x20 ADD DUP3 DUP1 SLOAD PUSH2 0xE05 SWAP1 PUSH2 0x1A00 JUMP JUMPDEST DUP1 ISZERO PUSH2 0xE52 JUMPI DUP1 PUSH1 0x1F LT PUSH2 0xE27 JUMPI PUSH2 0x100 DUP1 DUP4 SLOAD DIV MUL DUP4 MSTORE SWAP2 PUSH1 0x20 ADD SWAP2 PUSH2 0xE52 JUMP JUMPDEST DUP3 ADD SWAP2 SWAP1 PUSH1 0x0 MSTORE PUSH1 0x20 PUSH1 0x0 KECCAK256 SWAP1 JUMPDEST DUP2 SLOAD DUP2 MSTORE SWAP1 PUSH1 0x1 ADD SWAP1 PUSH1 0x20 ADD DUP1 DUP4 GT PUSH2 0xE35 JUMPI DUP3 SWAP1 SUB PUSH1 0x1F AND DUP3 ADD SWAP2 JUMPDEST POP POP POP POP POP DUP2 JUMP JUMPDEST PUSH1 0x60 PUSH2 0xE64 PUSH2 0x13B4 JUMP JUMPDEST PUSH1 0x3 PUSH1 0x9E SLOAD PUSH1 0xFF AND PUSH1 0x3 DUP2 GT ISZERO PUSH2 0xE7D JUMPI PUSH2 0xE7D PUSH2 0x176E JUMP JUMPDEST EQ PUSH2 0xEB3 JUMPI PUSH1 0x40 MLOAD PUSH3 0x461BCD PUSH1 0xE5 SHL DUP2 MSTORE PUSH1 0x4 ADD PUSH2 0x2DC SWAP1 PUSH1 0x20 DUP1 DUP3 MSTORE PUSH1 0x4 SWAP1 DUP3 ADD MSTORE PUSH4 0x30783137 PUSH1 0xE0 SHL PUSH1 0x40 DUP3 ADD MSTORE PUSH1 0x60 ADD SWAP1 JUMP JUMPDEST PUSH1 0x9C PUSH1 0x97 SLOAD DUP2 SLOAD DUP2 LT PUSH2 0xEC8 JUMPI PUSH2 0xEC8 PUSH2 0x19A5 JUMP JUMPDEST SWAP1 PUSH1 0x0 MSTORE PUSH1 0x20 PUSH1 0x0 KECCAK256 SWAP1 PUSH1 0x2 MUL ADD PUSH1 0x0 ADD DUP1 SLOAD PUSH2 0xEE4 SWAP1 PUSH2 0x1A00 JUMP JUMPDEST DUP1 PUSH1 0x1F ADD PUSH1 0x20 DUP1 SWAP2 DIV MUL PUSH1 0x20 ADD PUSH1 0x40 MLOAD SWAP1 DUP2 ADD PUSH1 0x40 MSTORE DUP1 SWAP3 SWAP2 SWAP1 DUP2 DUP2 MSTORE PUSH1 0x20 ADD DUP3 DUP1 SLOAD PUSH2 0xF10 SWAP1 PUSH2 0x1A00 JUMP JUMPDEST DUP1 ISZERO PUSH2 0xF5D JUMPI DUP1 PUSH1 0x1F LT PUSH2 0xF32 JUMPI PUSH2 0x100 DUP1 DUP4 SLOAD DIV MUL DUP4 MSTORE SWAP2 PUSH1 0x20 ADD SWAP2 PUSH2 0xF5D JUMP JUMPDEST DUP3 ADD SWAP2 SWAP1 PUSH1 0x0 MSTORE PUSH1 0x20 PUSH1 0x0 KECCAK256 SWAP1 JUMPDEST DUP2 SLOAD DUP2 MSTORE SWAP1 PUSH1 0x1 ADD SWAP1 PUSH1 0x20 ADD DUP1 DUP4 GT PUSH2 0xF40 JUMPI DUP3 SWAP1 SUB PUSH1 0x1F AND DUP3 ADD SWAP2 JUMPDEST POP POP POP POP POP SWAP1 POP SWAP1 JUMP JUMPDEST PUSH2 0xF6F PUSH2 0x13FA JUMP JUMPDEST PUSH2 0xF77 PUSH2 0x13B4 JUMP JUMPDEST PUSH1 0x0 PUSH1 0x9E SLOAD PUSH1 0xFF AND PUSH1 0x3 DUP2 GT ISZERO PUSH2 0xF90 JUMPI PUSH2 0xF90 PUSH2 0x176E JUMP JUMPDEST EQ PUSH2 0xFC6 JUMPI PUSH1 0x40 MLOAD PUSH3 0x461BCD PUSH1 0xE5 SHL DUP2 MSTORE PUSH1 0x4 ADD PUSH2 0x2DC SWAP1 PUSH1 0x20 DUP1 DUP3 MSTORE PUSH1 0x4 SWAP1 DUP3 ADD MSTORE PUSH4 0x30783033 PUSH1 0xE0 SHL PUSH1 0x40 DUP3 ADD MSTORE PUSH1 0x60 ADD SWAP1 JUMP JUMPDEST PUSH1 0x1 PUSH1 0x1 PUSH1 0xA0 SHL SUB DUP2 AND PUSH1 0x0 SWAP1 DUP2 MSTORE PUSH1 0x9A PUSH1 0x20 MSTORE PUSH1 0x40 SWAP1 KECCAK256 SLOAD PUSH1 0xFF AND ISZERO PUSH2 0x1018 JUMPI PUSH1 0x40 MLOAD PUSH3 0x461BCD PUSH1 0xE5 SHL DUP2 MSTORE PUSH1 0x4 ADD PUSH2 0x2DC SWAP1 PUSH1 0x20 DUP1 DUP3 MSTORE PUSH1 0x4 SWAP1 DUP3 ADD MSTORE PUSH4 0xC1E0C0D PUSH1 0xE2 SHL PUSH1 0x40 DUP3 ADD MSTORE PUSH1 0x60 ADD SWAP1 JUMP JUMPDEST PUSH1 0x1 PUSH1 0x1 PUSH1 0xA0 SHL SUB DUP2 AND PUSH1 0x0 DUP2 DUP2 MSTORE PUSH1 0x9A PUSH1 0x20 MSTORE PUSH1 0x40 DUP1 DUP3 KECCAK256 DUP1 SLOAD PUSH1 0xFF NOT AND PUSH1 0x1 SWAP1 DUP2 OR SWAP1 SWAP2 SSTORE PUSH1 0x9B DUP1 SLOAD SWAP2 DUP3 ADD DUP2 SSTORE DUP4 MSTORE PUSH32 0xBBA9DB4CDBEA0A37C207BBB83E20F828CD4441C49891101DC94FD20DC8EFC349 ADD DUP1 SLOAD PUSH1 0x1 PUSH1 0x1 PUSH1 0xA0 SHL SUB NOT AND DUP5 OR SWAP1 SSTORE MLOAD PUSH32 0xB6BE2187D059CC2A55FE29E0E503B566E1E0F8C8780096E185429350ACFFD3DD SWAP2 SWAP1 LOG2 POP JUMP JUMPDEST PUSH1 0x0 SLOAD PUSH2 0x100 SWAP1 DIV PUSH1 0xFF AND ISZERO DUP1 DUP1 ISZERO PUSH2 0x10C4 JUMPI POP PUSH1 0x0 SLOAD PUSH1 0x1 PUSH1 0xFF SWAP1 SWAP2 AND LT JUMPDEST DUP1 PUSH2 0x10DE JUMPI POP ADDRESS EXTCODESIZE ISZERO DUP1 ISZERO PUSH2 0x10DE JUMPI POP PUSH1 0x0 SLOAD PUSH1 0xFF AND PUSH1 0x1 EQ JUMPDEST PUSH2 0x1141 JUMPI PUSH1 0x40 MLOAD PUSH3 0x461BCD PUSH1 0xE5 SHL DUP2 MSTORE PUSH1 0x20 PUSH1 0x4 DUP3 ADD MSTORE PUSH1 0x2E PUSH1 0x24 DUP3 ADD MSTORE PUSH32 0x496E697469616C697A61626C653A20636F6E747261637420697320616C726561 PUSH1 0x44 DUP3 ADD MSTORE PUSH14 0x191E481A5B9A5D1A585B1A5E9959 PUSH1 0x92 SHL PUSH1 0x64 DUP3 ADD MSTORE PUSH1 0x84 ADD PUSH2 0x2DC JUMP JUMPDEST PUSH1 0x0 DUP1 SLOAD PUSH1 0xFF NOT AND PUSH1 0x1 OR SWAP1 SSTORE DUP1 ISZERO PUSH2 0x1164 JUMPI PUSH1 0x0 DUP1 SLOAD PUSH2 0xFF00 NOT AND PUSH2 0x100 OR SWAP1 SSTORE JUMPDEST PUSH2 0x116D DUP3 PUSH2 0x164B JUMP JUMPDEST DUP1 ISZERO PUSH2 0xA59 JUMPI PUSH1 0x0 DUP1 SLOAD PUSH2 0xFF00 NOT AND SWAP1 SSTORE PUSH1 0x40 MLOAD PUSH1 0x1 DUP2 MSTORE PUSH32 0x7F26B83FF96E1F2B6A682F133852F6798A09C465DA95921460CEFB3847402498 SWAP1 PUSH1 0x20 ADD JUMPDEST PUSH1 0x40 MLOAD DUP1 SWAP2 SUB SWAP1 LOG1 POP POP JUMP JUMPDEST CALLER PUSH1 0x0 SWAP1 DUP2 MSTORE PUSH1 0x9A PUSH1 0x20 MSTORE PUSH1 0x40 DUP2 KECCAK256 SLOAD PUSH1 0xFF AND PUSH2 0x11E6 JUMPI PUSH1 0x40 MLOAD PUSH3 0x461BCD PUSH1 0xE5 SHL DUP2 MSTORE PUSH1 0x4 ADD PUSH2 0x2DC SWAP1 PUSH2 0x1987 JUMP JUMPDEST PUSH2 0x11EE PUSH2 0x13B4 JUMP JUMPDEST PUSH1 0x1 PUSH1 0x1 PUSH1 0xA0 SHL SUB DUP3 AND PUSH1 0x0 SWAP1 DUP2 MSTORE PUSH1 0x9A PUSH1 0x20 MSTORE PUSH1 0x40 SWAP1 KECCAK256 SLOAD PUSH1 0xFF PUSH2 0x100 SWAP1 SWAP2 DIV AND ISZERO ISZERO PUSH1 0x1 EQ PUSH2 0x124A JUMPI PUSH1 0x40 MLOAD PUSH3 0x461BCD PUSH1 0xE5 SHL DUP2 MSTORE PUSH1 0x4 ADD PUSH2 0x2DC SWAP1 PUSH1 0x20 DUP1 DUP3 MSTORE PUSH1 0x4 SWAP1 DUP3 ADD MSTORE PUSH4 0x183C189B PUSH1 0xE1 SHL PUSH1 0x40 DUP3 ADD MSTORE PUSH1 0x60 ADD SWAP1 JUMP JUMPDEST POP PUSH1 0x1 PUSH1 0x1 PUSH1 0xA0 SHL SUB AND PUSH1 0x0 SWAP1 DUP2 MSTORE PUSH1 0x9A PUSH1 0x20 MSTORE PUSH1 0x40 SWAP1 KECCAK256 PUSH1 0x1 ADD SLOAD SWAP1 JUMP JUMPDEST PUSH2 0x1271 PUSH2 0x13FA JUMP JUMPDEST PUSH2 0x1279 PUSH2 0x13B4 JUMP JUMPDEST PUSH1 0x0 PUSH1 0x9E SLOAD PUSH1 0xFF AND PUSH1 0x3 DUP2 GT ISZERO PUSH2 0x1292 JUMPI PUSH2 0x1292 PUSH2 0x176E JUMP JUMPDEST EQ PUSH2 0x12C8 JUMPI PUSH1 0x40 MLOAD PUSH3 0x461BCD PUSH1 0xE5 SHL DUP2 MSTORE PUSH1 0x4 ADD PUSH2 0x2DC SWAP1 PUSH1 0x20 DUP1 DUP3 MSTORE PUSH1 0x4 SWAP1 DUP3 ADD MSTORE PUSH4 0x183C181B PUSH1 0xE1 SHL PUSH1 0x40 DUP3 ADD MSTORE PUSH1 0x60 ADD SWAP1 JUMP JUMPDEST PUSH2 0xC8D PUSH1 0x1 PUSH2 0x1597 JUMP JUMPDEST PUSH2 0x12DA PUSH2 0x13FA JUMP JUMPDEST PUSH2 0x12E2 PUSH2 0x13B4 JUMP JUMPDEST PUSH1 0x1 PUSH1 0x9E SLOAD PUSH1 0xFF AND PUSH1 0x3 DUP2 GT ISZERO PUSH2 0x12FB JUMPI PUSH2 0x12FB PUSH2 0x176E JUMP JUMPDEST EQ PUSH2 0x1331 JUMPI PUSH1 0x40 MLOAD PUSH3 0x461BCD PUSH1 0xE5 SHL DUP2 MSTORE PUSH1 0x4 ADD PUSH2 0x2DC SWAP1 PUSH1 0x20 DUP1 DUP3 MSTORE PUSH1 0x4 SWAP1 DUP3 ADD MSTORE PUSH4 0x3078313 PUSH1 0xE4 SHL PUSH1 0x40 DUP3 ADD MSTORE PUSH1 0x60 ADD SWAP1 JUMP JUMPDEST PUSH2 0xC8D PUSH1 0x2 PUSH2 0x1597 JUMP JUMPDEST PUSH2 0x1343 PUSH2 0x13FA JUMP JUMPDEST PUSH1 0x1 PUSH1 0x1 PUSH1 0xA0 SHL SUB DUP2 AND PUSH2 0x13A8 JUMPI PUSH1 0x40 MLOAD PUSH3 0x461BCD PUSH1 0xE5 SHL DUP2 MSTORE PUSH1 0x20 PUSH1 0x4 DUP3 ADD MSTORE PUSH1 0x26 PUSH1 0x24 DUP3 ADD MSTORE PUSH32 0x4F776E61626C653A206E6577206F776E657220697320746865207A65726F2061 PUSH1 0x44 DUP3 ADD MSTORE PUSH6 0x646472657373 PUSH1 0xD0 SHL PUSH1 0x64 DUP3 ADD MSTORE PUSH1 0x84 ADD PUSH2 0x2DC JUMP JUMPDEST PUSH2 0x13B1 DUP2 PUSH2 0x164B JUMP JUMPDEST POP JUMP JUMPDEST PUSH1 0x65 SLOAD PUSH1 0xFF AND ISZERO PUSH2 0xC8D JUMPI PUSH1 0x40 MLOAD PUSH3 0x461BCD PUSH1 0xE5 SHL DUP2 MSTORE PUSH1 0x20 PUSH1 0x4 DUP3 ADD MSTORE PUSH1 0x10 PUSH1 0x24 DUP3 ADD MSTORE PUSH16 0x14185D5CD8589B194E881C185D5CD959 PUSH1 0x82 SHL PUSH1 0x44 DUP3 ADD MSTORE PUSH1 0x64 ADD PUSH2 0x2DC JUMP JUMPDEST PUSH1 0x33 SLOAD PUSH1 0x1 PUSH1 0x1 PUSH1 0xA0 SHL SUB AND CALLER EQ PUSH2 0xC8D JUMPI PUSH1 0x40 MLOAD PUSH3 0x461BCD PUSH1 0xE5 SHL DUP2 MSTORE PUSH1 0x20 PUSH1 0x4 DUP3 ADD DUP2 SWAP1 MSTORE PUSH1 0x24 DUP3 ADD MSTORE PUSH32 0x4F776E61626C653A2063616C6C6572206973206E6F7420746865206F776E6572 PUSH1 0x44 DUP3 ADD MSTORE PUSH1 0x64 ADD PUSH2 0x2DC JUMP JUMPDEST PUSH2 0x145C PUSH2 0x13B4 JUMP JUMPDEST PUSH1 0x9C SLOAD PUSH1 0x0 JUMPDEST DUP2 DUP2 LT ISZERO PUSH2 0x1519 JUMPI PUSH1 0x9C DUP2 DUP2 SLOAD DUP2 LT PUSH2 0x147D JUMPI PUSH2 0x147D PUSH2 0x19A5 JUMP JUMPDEST SWAP1 PUSH1 0x0 MSTORE PUSH1 0x20 PUSH1 0x0 KECCAK256 SWAP1 PUSH1 0x2 MUL ADD PUSH1 0x0 ADD PUSH1 0x40 MLOAD PUSH1 0x20 ADD PUSH2 0x149E SWAP2 SWAP1 PUSH2 0x1C42 JUMP JUMPDEST PUSH1 0x40 MLOAD PUSH1 0x20 DUP2 DUP4 SUB SUB DUP2 MSTORE SWAP1 PUSH1 0x40 MSTORE DUP1 MLOAD SWAP1 PUSH1 0x20 ADD KECCAK256 DUP4 PUSH1 0x40 MLOAD PUSH1 0x20 ADD PUSH2 0x14C5 SWAP2 SWAP1 PUSH2 0x194B JUMP JUMPDEST PUSH1 0x40 MLOAD PUSH1 0x20 DUP2 DUP4 SUB SUB DUP2 MSTORE SWAP1 PUSH1 0x40 MSTORE DUP1 MLOAD SWAP1 PUSH1 0x20 ADD KECCAK256 SUB PUSH2 0x1511 JUMPI PUSH1 0x40 MLOAD PUSH3 0x461BCD PUSH1 0xE5 SHL DUP2 MSTORE PUSH1 0x4 ADD PUSH2 0x2DC SWAP1 PUSH1 0x20 DUP1 DUP3 MSTORE PUSH1 0x4 SWAP1 DUP3 ADD MSTORE PUSH4 0x60F0627 PUSH1 0xE3 SHL PUSH1 0x40 DUP3 ADD MSTORE PUSH1 0x60 ADD SWAP1 JUMP JUMPDEST PUSH1 0x1 ADD PUSH2 0x1462 JUMP JUMPDEST POP POP POP JUMP JUMPDEST PUSH1 0x0 PUSH2 0x1528 PUSH2 0x13B4 JUMP JUMPDEST PUSH1 0x9C SLOAD PUSH1 0x0 JUMPDEST DUP2 DUP2 LT ISZERO PUSH2 0x1592 JUMPI DUP3 PUSH1 0x9C DUP3 DUP2 SLOAD DUP2 LT PUSH2 0x154A JUMPI PUSH2 0x154A PUSH2 0x19A5 JUMP JUMPDEST SWAP1 PUSH1 0x0 MSTORE PUSH1 0x20 PUSH1 0x0 KECCAK256 SWAP1 PUSH1 0x2 MUL ADD PUSH1 0x1 ADD SLOAD GT ISZERO PUSH2 0x158A JUMPI PUSH1 0x9C DUP2 DUP2 SLOAD DUP2 LT PUSH2 0x1575 JUMPI PUSH2 0x1575 PUSH2 0x19A5 JUMP JUMPDEST SWAP1 PUSH1 0x0 MSTORE PUSH1 0x20 PUSH1 0x0 KECCAK256 SWAP1 PUSH1 0x2 MUL ADD PUSH1 0x1 ADD SLOAD SWAP3 POP JUMPDEST PUSH1 0x1 ADD PUSH2 0x152E JUMP JUMPDEST POP POP SWAP1 JUMP JUMPDEST PUSH1 0x9E DUP1 SLOAD PUSH1 0xFF DUP2 AND SWAP2 DUP4 SWAP2 PUSH1 0xFF NOT AND PUSH1 0x1 DUP4 PUSH1 0x3 DUP2 GT ISZERO PUSH2 0x15BA JUMPI PUSH2 0x15BA PUSH2 0x176E JUMP JUMPDEST MUL OR SWAP1 SSTORE POP PUSH1 0x9E SLOAD PUSH1 0x40 MLOAD PUSH32 0xA97A4EE45751E2ABF3E4FC8946939630B11B371EA8AE39CCDC3056E98F5CC3F SWAP2 PUSH2 0x11AB SWAP2 DUP5 SWAP2 PUSH1 0xFF AND SWAP1 PUSH2 0x1D45 JUMP JUMPDEST PUSH2 0x15FE PUSH2 0x13B4 JUMP JUMPDEST PUSH1 0x65 DUP1 SLOAD PUSH1 0xFF NOT AND PUSH1 0x1 OR SWAP1 SSTORE PUSH32 0x62E78CEA01BEE320CD4E420270B5EA74000D11B0C9F74754EBDBFC544B05A258 PUSH2 0x1633 CALLER SWAP1 JUMP JUMPDEST PUSH1 0x40 MLOAD PUSH1 0x1 PUSH1 0x1 PUSH1 0xA0 SHL SUB SWAP1 SWAP2 AND DUP2 MSTORE PUSH1 0x20 ADD PUSH2 0xAA1 JUMP JUMPDEST PUSH1 0x33 DUP1 SLOAD PUSH1 0x1 PUSH1 0x1 PUSH1 0xA0 SHL SUB DUP4 DUP2 AND PUSH1 0x1 PUSH1 0x1 PUSH1 0xA0 SHL SUB NOT DUP4 AND DUP2 OR SWAP1 SWAP4 SSTORE PUSH1 0x40 MLOAD SWAP2 AND SWAP2 SWAP1 DUP3 SWAP1 PUSH32 0x8BE0079C531659141344CD1FD0A4F28419497F9722A3DAAFE3B4186F6B6457E0 SWAP1 PUSH1 0x0 SWAP1 LOG3 POP POP JUMP JUMPDEST POP DUP1 SLOAD PUSH1 0x0 DUP3 SSTORE PUSH1 0x2 MUL SWAP1 PUSH1 0x0 MSTORE PUSH1 0x20 PUSH1 0x0 KECCAK256 SWAP1 DUP2 ADD SWAP1 PUSH2 0x13B1 SWAP2 SWAP1 JUMPDEST DUP1 DUP3 GT ISZERO PUSH2 0x16DE JUMPI PUSH1 0x0 PUSH2 0x16CE DUP3 DUP3 PUSH2 0x16E2 JUMP JUMPDEST POP PUSH1 0x0 PUSH1 0x1 DUP3 ADD SSTORE PUSH1 0x2 ADD PUSH2 0x16BA JUMP JUMPDEST POP SWAP1 JUMP JUMPDEST POP DUP1 SLOAD PUSH2 0x16EE SWAP1 PUSH2 0x1A00 JUMP JUMPDEST PUSH1 0x0 DUP3 SSTORE DUP1 PUSH1 0x1F LT PUSH2 0x16FE JUMPI POP POP JUMP JUMPDEST PUSH1 0x1F ADD PUSH1 0x20 SWAP1 DIV SWAP1 PUSH1 0x0 MSTORE PUSH1 0x20 PUSH1 0x0 KECCAK256 SWAP1 DUP2 ADD SWAP1 PUSH2 0x13B1 SWAP2 SWAP1 JUMPDEST DUP1 DUP3 GT ISZERO PUSH2 0x16DE JUMPI PUSH1 0x0 DUP2 SSTORE PUSH1 0x1 ADD PUSH2 0x1718 JUMP JUMPDEST PUSH1 0x0 PUSH1 0x20 DUP3 DUP5 SUB SLT ISZERO PUSH2 0x173E JUMPI PUSH1 0x0 DUP1 REVERT JUMPDEST POP CALLDATALOAD SWAP2 SWAP1 POP JUMP JUMPDEST PUSH1 0x0 PUSH1 0x20 DUP3 DUP5 SUB SLT ISZERO PUSH2 0x1757 JUMPI PUSH1 0x0 DUP1 REVERT JUMPDEST DUP2 CALLDATALOAD DUP1 ISZERO ISZERO DUP2 EQ PUSH2 0x1767 JUMPI PUSH1 0x0 DUP1 REVERT JUMPDEST SWAP4 SWAP3 POP POP POP JUMP JUMPDEST PUSH4 0x4E487B71 PUSH1 0xE0 SHL PUSH1 0x0 MSTORE PUSH1 0x21 PUSH1 0x4 MSTORE PUSH1 0x24 PUSH1 0x0 REVERT JUMPDEST PUSH1 0x4 DUP2 LT PUSH2 0x17A2 JUMPI PUSH4 0x4E487B71 PUSH1 0xE0 SHL PUSH1 0x0 MSTORE PUSH1 0x21 PUSH1 0x4 MSTORE PUSH1 0x24 PUSH1 0x0 REVERT JUMPDEST SWAP1 MSTORE JUMP JUMPDEST PUSH1 0x20 DUP2 ADD PUSH2 0x17B4 DUP3 DUP5 PUSH2 0x1784 JUMP JUMPDEST SWAP3 SWAP2 POP POP JUMP JUMPDEST PUSH1 0x0 DUP1 PUSH1 0x20 DUP4 DUP6 SUB SLT ISZERO PUSH2 0x17CD JUMPI PUSH1 0x0 DUP1 REVERT JUMPDEST DUP3 CALLDATALOAD PUSH8 0xFFFFFFFFFFFFFFFF DUP1 DUP3 GT ISZERO PUSH2 0x17E5 JUMPI PUSH1 0x0 DUP1 REVERT JUMPDEST DUP2 DUP6 ADD SWAP2 POP DUP6 PUSH1 0x1F DUP4 ADD SLT PUSH2 0x17F9 JUMPI PUSH1 0x0 DUP1 REVERT JUMPDEST DUP2 CALLDATALOAD DUP2 DUP2 GT ISZERO PUSH2 0x1808 JUMPI PUSH1 0x0 DUP1 REVERT JUMPDEST DUP7 PUSH1 0x20 DUP3 DUP6 ADD ADD GT ISZERO PUSH2 0x181A JUMPI PUSH1 0x0 DUP1 REVERT JUMPDEST PUSH1 0x20 SWAP3 SWAP1 SWAP3 ADD SWAP7 SWAP2 SWAP6 POP SWAP1 SWAP4 POP POP POP POP JUMP JUMPDEST PUSH1 0x0 DUP2 MLOAD DUP1 DUP5 MSTORE PUSH1 0x0 JUMPDEST DUP2 DUP2 LT ISZERO PUSH2 0x1852 JUMPI PUSH1 0x20 DUP2 DUP6 ADD DUP2 ADD MLOAD DUP7 DUP4 ADD DUP3 ADD MSTORE ADD PUSH2 0x1836 JUMP JUMPDEST POP PUSH1 0x0 PUSH1 0x20 DUP3 DUP7 ADD ADD MSTORE PUSH1 0x20 PUSH1 0x1F NOT PUSH1 0x1F DUP4 ADD AND DUP6 ADD ADD SWAP2 POP POP SWAP3 SWAP2 POP POP JUMP JUMPDEST PUSH1 0x0 PUSH1 0x20 DUP1 DUP4 ADD DUP2 DUP5 MSTORE DUP1 DUP6 MLOAD DUP1 DUP4 MSTORE PUSH1 0x40 SWAP3 POP DUP3 DUP7 ADD SWAP2 POP DUP3 DUP2 PUSH1 0x5 SHL DUP8 ADD ADD DUP5 DUP9 ADD PUSH1 0x0 JUMPDEST DUP4 DUP2 LT ISZERO PUSH2 0x18DA JUMPI DUP9 DUP4 SUB PUSH1 0x3F NOT ADD DUP6 MSTORE DUP2 MLOAD DUP1 MLOAD DUP8 DUP6 MSTORE PUSH2 0x18BD DUP9 DUP7 ADD DUP3 PUSH2 0x182C JUMP JUMPDEST SWAP2 DUP10 ADD MLOAD SWAP5 DUP10 ADD SWAP5 SWAP1 SWAP5 MSTORE SWAP5 DUP8 ADD SWAP5 SWAP3 POP SWAP1 DUP7 ADD SWAP1 PUSH1 0x1 ADD PUSH2 0x1899 JUMP JUMPDEST POP SWAP1 SWAP9 SWAP8 POP POP POP POP POP POP POP POP JUMP JUMPDEST PUSH1 0x0 DUP1 PUSH1 0x20 DUP4 DUP6 SUB SLT ISZERO PUSH2 0x18FB JUMPI PUSH1 0x0 DUP1 REVERT JUMPDEST DUP3 CALLDATALOAD PUSH8 0xFFFFFFFFFFFFFFFF DUP1 DUP3 GT ISZERO PUSH2 0x1913 JUMPI PUSH1 0x0 DUP1 REVERT JUMPDEST DUP2 DUP6 ADD SWAP2 POP DUP6 PUSH1 0x1F DUP4 ADD SLT PUSH2 0x1927 JUMPI PUSH1 0x0 DUP1 REVERT JUMPDEST DUP2 CALLDATALOAD DUP2 DUP2 GT ISZERO PUSH2 0x1936 JUMPI PUSH1 0x0 DUP1 REVERT JUMPDEST DUP7 PUSH1 0x20 DUP3 PUSH1 0x5 SHL DUP6 ADD ADD GT ISZERO PUSH2 0x181A JUMPI PUSH1 0x0 DUP1 REVERT JUMPDEST PUSH1 0x20 DUP2 MSTORE PUSH1 0x0 PUSH2 0x1767 PUSH1 0x20 DUP4 ADD DUP5 PUSH2 0x182C JUMP JUMPDEST PUSH1 0x0 PUSH1 0x20 DUP3 DUP5 SUB SLT ISZERO PUSH2 0x1970 JUMPI PUSH1 0x0 DUP1 REVERT JUMPDEST DUP2 CALLDATALOAD PUSH1 0x1 PUSH1 0x1 PUSH1 0xA0 SHL SUB DUP2 AND DUP2 EQ PUSH2 0x1767 JUMPI PUSH1 0x0 DUP1 REVERT JUMPDEST PUSH1 0x20 DUP1 DUP3 MSTORE PUSH1 0x4 SWAP1 DUP3 ADD MSTORE PUSH4 0x30783031 PUSH1 0xE0 SHL PUSH1 0x40 DUP3 ADD MSTORE PUSH1 0x60 ADD SWAP1 JUMP JUMPDEST PUSH4 0x4E487B71 PUSH1 0xE0 SHL PUSH1 0x0 MSTORE PUSH1 0x32 PUSH1 0x4 MSTORE PUSH1 0x24 PUSH1 0x0 REVERT JUMPDEST PUSH4 0x4E487B71 PUSH1 0xE0 SHL PUSH1 0x0 MSTORE PUSH1 0x11 PUSH1 0x4 MSTORE PUSH1 0x24 PUSH1 0x0 REVERT JUMPDEST PUSH1 0x0 PUSH1 0x1 DUP3 ADD PUSH2 0x19E3 JUMPI PUSH2 0x19E3 PUSH2 0x19BB JUMP JUMPDEST POP PUSH1 0x1 ADD SWAP1 JUMP JUMPDEST PUSH4 0x4E487B71 PUSH1 0xE0 SHL PUSH1 0x0 MSTORE PUSH1 0x41 PUSH1 0x4 MSTORE PUSH1 0x24 PUSH1 0x0 REVERT JUMPDEST PUSH1 0x1 DUP2 DUP2 SHR SWAP1 DUP3 AND DUP1 PUSH2 0x1A14 JUMPI PUSH1 0x7F DUP3 AND SWAP2 POP JUMPDEST PUSH1 0x20 DUP3 LT DUP2 SUB PUSH2 0x1A34 JUMPI PUSH4 0x4E487B71 PUSH1 0xE0 SHL PUSH1 0x0 MSTORE PUSH1 0x22 PUSH1 0x4 MSTORE PUSH1 0x24 PUSH1 0x0 REVERT JUMPDEST POP SWAP2 SWAP1 POP JUMP JUMPDEST PUSH1 0x1F DUP3 GT ISZERO PUSH2 0x1519 JUMPI PUSH1 0x0 DUP2 DUP2 MSTORE PUSH1 0x20 DUP2 KECCAK256 PUSH1 0x1F DUP6 ADD PUSH1 0x5 SHR DUP2 ADD PUSH1 0x20 DUP7 LT ISZERO PUSH2 0x1A61 JUMPI POP DUP1 JUMPDEST PUSH1 0x1F DUP6 ADD PUSH1 0x5 SHR DUP3 ADD SWAP2 POP JUMPDEST DUP2 DUP2 LT ISZERO PUSH2 0x1A80 JUMPI DUP3 DUP2 SSTORE PUSH1 0x1 ADD PUSH2 0x1A6D JUMP JUMPDEST POP POP POP POP POP POP JUMP JUMPDEST DUP2 MLOAD PUSH8 0xFFFFFFFFFFFFFFFF DUP2 GT ISZERO PUSH2 0x1AA2 JUMPI PUSH2 0x1AA2 PUSH2 0x19EA JUMP JUMPDEST PUSH2 0x1AB6 DUP2 PUSH2 0x1AB0 DUP5 SLOAD PUSH2 0x1A00 JUMP JUMPDEST DUP5 PUSH2 0x1A3A JUMP JUMPDEST PUSH1 0x20 DUP1 PUSH1 0x1F DUP4 GT PUSH1 0x1 DUP2 EQ PUSH2 0x1AEB JUMPI PUSH1 0x0 DUP5 ISZERO PUSH2 0x1AD3 JUMPI POP DUP6 DUP4 ADD MLOAD JUMPDEST PUSH1 0x0 NOT PUSH1 0x3 DUP7 SWAP1 SHL SHR NOT AND PUSH1 0x1 DUP6 SWAP1 SHL OR DUP6 SSTORE PUSH2 0x1A80 JUMP JUMPDEST PUSH1 0x0 DUP6 DUP2 MSTORE PUSH1 0x20 DUP2 KECCAK256 PUSH1 0x1F NOT DUP7 AND SWAP2 JUMPDEST DUP3 DUP2 LT ISZERO PUSH2 0x1B1A JUMPI DUP9 DUP7 ADD MLOAD DUP3 SSTORE SWAP5 DUP5 ADD SWAP5 PUSH1 0x1 SWAP1 SWAP2 ADD SWAP1 DUP5 ADD PUSH2 0x1AFB JUMP JUMPDEST POP DUP6 DUP3 LT ISZERO PUSH2 0x1B38 JUMPI DUP8 DUP6 ADD MLOAD PUSH1 0x0 NOT PUSH1 0x3 DUP9 SWAP1 SHL PUSH1 0xF8 AND SHR NOT AND DUP2 SSTORE JUMPDEST POP POP POP POP POP PUSH1 0x1 SWAP1 DUP2 SHL ADD SWAP1 SSTORE POP JUMP JUMPDEST DUP2 DUP2 SUB DUP2 DUP2 GT ISZERO PUSH2 0x17B4 JUMPI PUSH2 0x17B4 PUSH2 0x19BB JUMP JUMPDEST PUSH1 0x0 DUP2 SLOAD PUSH2 0x1B68 DUP2 PUSH2 0x1A00 JUMP JUMPDEST DUP1 DUP6 MSTORE PUSH1 0x20 PUSH1 0x1 DUP4 DUP2 AND DUP1 ISZERO PUSH2 0x1B85 JUMPI PUSH1 0x1 DUP2 EQ PUSH2 0x1B9F JUMPI PUSH2 0x1BCD JUMP JUMPDEST PUSH1 0xFF NOT DUP6 AND DUP9 DUP5 ADD MSTORE DUP4 ISZERO ISZERO PUSH1 0x5 SHL DUP9 ADD DUP4 ADD SWAP6 POP PUSH2 0x1BCD JUMP JUMPDEST DUP7 PUSH1 0x0 MSTORE DUP3 PUSH1 0x0 KECCAK256 PUSH1 0x0 JUMPDEST DUP6 DUP2 LT ISZERO PUSH2 0x1BC5 JUMPI DUP2 SLOAD DUP11 DUP3 ADD DUP7 ADD MSTORE SWAP1 DUP4 ADD SWAP1 DUP5 ADD PUSH2 0x1BAA JUMP JUMPDEST DUP10 ADD DUP5 ADD SWAP7 POP POP JUMPDEST POP POP POP POP POP SWAP3 SWAP2 POP POP JUMP JUMPDEST PUSH1 0x0 PUSH1 0x20 DUP1 DUP4 ADD DUP2 DUP5 MSTORE DUP1 DUP6 SLOAD DUP1 DUP4 MSTORE PUSH1 0x40 SWAP3 POP DUP3 DUP7 ADD SWAP2 POP DUP3 DUP2 PUSH1 0x5 SHL DUP8 ADD ADD DUP8 PUSH1 0x0 MSTORE DUP5 PUSH1 0x0 KECCAK256 PUSH1 0x0 JUMPDEST DUP4 DUP2 LT ISZERO PUSH2 0x18DA JUMPI DUP9 DUP4 SUB PUSH1 0x3F NOT ADD DUP6 MSTORE DUP6 DUP4 MSTORE PUSH2 0x1C24 DUP7 DUP5 ADD DUP4 PUSH2 0x1B5B JUMP JUMPDEST PUSH1 0x1 DUP4 DUP2 ADD SLOAD SWAP5 DUP10 ADD SWAP5 SWAP1 SWAP5 MSTORE SWAP5 DUP8 ADD SWAP5 SWAP3 PUSH1 0x2 SWAP1 SWAP3 ADD SWAP2 ADD PUSH2 0x1C04 JUMP JUMPDEST PUSH1 0x20 DUP2 MSTORE PUSH1 0x0 PUSH2 0x1767 PUSH1 0x20 DUP4 ADD DUP5 PUSH2 0x1B5B JUMP JUMPDEST PUSH1 0x20 DUP2 MSTORE DUP2 PUSH1 0x20 DUP3 ADD MSTORE DUP2 DUP4 PUSH1 0x40 DUP4 ADD CALLDATACOPY PUSH1 0x0 DUP2 DUP4 ADD PUSH1 0x40 SWAP1 DUP2 ADD SWAP2 SWAP1 SWAP2 MSTORE PUSH1 0x1F SWAP1 SWAP3 ADD PUSH1 0x1F NOT AND ADD ADD SWAP2 SWAP1 POP JUMP JUMPDEST PUSH8 0xFFFFFFFFFFFFFFFF DUP4 GT ISZERO PUSH2 0x1C9C JUMPI PUSH2 0x1C9C PUSH2 0x19EA JUMP JUMPDEST PUSH2 0x1CB0 DUP4 PUSH2 0x1CAA DUP4 SLOAD PUSH2 0x1A00 JUMP JUMPDEST DUP4 PUSH2 0x1A3A JUMP JUMPDEST PUSH1 0x0 PUSH1 0x1F DUP5 GT PUSH1 0x1 DUP2 EQ PUSH2 0x1CE4 JUMPI PUSH1 0x0 DUP6 ISZERO PUSH2 0x1CCC JUMPI POP DUP4 DUP3 ADD CALLDATALOAD JUMPDEST PUSH1 0x0 NOT PUSH1 0x3 DUP8 SWAP1 SHL SHR NOT AND PUSH1 0x1 DUP7 SWAP1 SHL OR DUP4 SSTORE PUSH2 0x1D3E JUMP JUMPDEST PUSH1 0x0 DUP4 DUP2 MSTORE PUSH1 0x20 SWAP1 KECCAK256 PUSH1 0x1F NOT DUP7 AND SWAP1 DUP4 JUMPDEST DUP3 DUP2 LT ISZERO PUSH2 0x1D15 JUMPI DUP7 DUP6 ADD CALLDATALOAD DUP3 SSTORE PUSH1 0x20 SWAP5 DUP6 ADD SWAP5 PUSH1 0x1 SWAP1 SWAP3 ADD SWAP2 ADD PUSH2 0x1CF5 JUMP JUMPDEST POP DUP7 DUP3 LT ISZERO PUSH2 0x1D32 JUMPI PUSH1 0x0 NOT PUSH1 0xF8 DUP9 PUSH1 0x3 SHL AND SHR NOT DUP5 DUP8 ADD CALLDATALOAD AND DUP2 SSTORE JUMPDEST POP POP PUSH1 0x1 DUP6 PUSH1 0x1 SHL ADD DUP4 SSTORE JUMPDEST POP POP POP POP POP JUMP JUMPDEST PUSH1 0x40 DUP2 ADD PUSH2 0x1D53 DUP3 DUP6 PUSH2 0x1784 JUMP JUMPDEST PUSH2 0x1767 PUSH1 0x20 DUP4 ADD DUP5 PUSH2 0x1784 JUMP INVALID LOG2 PUSH5 0x6970667358 0x22 SLT KECCAK256 0xB9 SWAP10 PUSH31 0x82045D79A9E431D9E85CFC7E0618C7314C4A1D078496B8772A5030DE836473 PUSH16 0x6C634300081100330000000000000000 "},"methodIdentifiers":{"b_A6Q()":"f22d605e"}},"storageLayout":{"storage":[],"types":null}}}}